{
  "abi": [
    {
      "type": "function",
      "name": "deployApplication",
      "inputs": [
        {
          "name": "name",
          "type": "string",
          "internalType": "string"
        },
        {
          "name": "bytecode",
          "type": "bytes",
          "internalType": "bytes"
        }
      ],
      "outputs": [
        {
          "name": "",
          "type": "address",
          "internalType": "address"
        }
      ],
      "stateMutability": "payable"
    },
    {
      "type": "function",
      "name": "deployImplementation",
      "inputs": [
        {
          "name": "name",
          "type": "string",
          "internalType": "string"
        },
        {
          "name": "version",
          "type": "uint256",
          "internalType": "uint256"
        },
        {
          "name": "bytecode",
          "type": "bytes",
          "internalType": "bytes"
        }
      ],
      "outputs": [
        {
          "name": "",
          "type": "address",
          "internalType": "address"
        }
      ],
      "stateMutability": "nonpayable"
    },
    {
      "type": "function",
      "name": "getApplicationAddress",
      "inputs": [
        {
          "name": "name",
          "type": "string",
          "internalType": "string"
        }
      ],
      "outputs": [
        {
          "name": "",
          "type": "address",
          "internalType": "address"
        }
      ],
      "stateMutability": "view"
    },
    {
      "type": "function",
      "name": "getComputedAddress",
      "inputs": [
        {
          "name": "name",
          "type": "string",
          "internalType": "string"
        },
        {
          "name": "version",
          "type": "uint256",
          "internalType": "uint256"
        },
        {
          "name": "bytecode",
          "type": "bytes",
          "internalType": "bytes"
        }
      ],
      "outputs": [
        {
          "name": "",
          "type": "address",
          "internalType": "address"
        }
      ],
      "stateMutability": "view"
    },
    {
      "type": "function",
      "name": "getComputedAddress",
      "inputs": [
        {
          "name": "name",
          "type": "string",
          "internalType": "string"
        },
        {
          "name": "bytecode",
          "type": "bytes",
          "internalType": "bytes"
        }
      ],
      "outputs": [
        {
          "name": "",
          "type": "address",
          "internalType": "address"
        }
      ],
      "stateMutability": "view"
    },
    {
      "type": "function",
      "name": "getImplementationAddress",
      "inputs": [
        {
          "name": "name",
          "type": "string",
          "internalType": "string"
        },
        {
          "name": "version",
          "type": "uint256",
          "internalType": "uint256"
        }
      ],
      "outputs": [
        {
          "name": "",
          "type": "address",
          "internalType": "address"
        }
      ],
      "stateMutability": "view"
    },
    {
      "type": "function",
      "name": "owner",
      "inputs": [],
      "outputs": [
        {
          "name": "",
          "type": "address",
          "internalType": "address"
        }
      ],
      "stateMutability": "view"
    },
    {
      "type": "function",
      "name": "renounceOwnership",
      "inputs": [],
      "outputs": [],
      "stateMutability": "nonpayable"
    },
    {
      "type": "function",
      "name": "transferOwnership",
      "inputs": [
        {
          "name": "newOwner",
          "type": "address",
          "internalType": "address"
        }
      ],
      "outputs": [],
      "stateMutability": "nonpayable"
    },
    {
      "type": "event",
      "name": "ApplicationDeployment",
      "inputs": [
        {
          "name": "_name",
          "type": "string",
          "indexed": true,
          "internalType": "string"
        },
        {
          "name": "_addr",
          "type": "address",
          "indexed": true,
          "internalType": "address"
        }
      ],
      "anonymous": false
    },
    {
      "type": "event",
      "name": "ImplementationDeployment",
      "inputs": [
        {
          "name": "_name",
          "type": "string",
          "indexed": true,
          "internalType": "string"
        },
        {
          "name": "_version",
          "type": "uint256",
          "indexed": true,
          "internalType": "uint256"
        },
        {
          "name": "_addr",
          "type": "address",
          "indexed": true,
          "internalType": "address"
        }
      ],
      "anonymous": false
    },
    {
      "type": "event",
      "name": "OwnershipTransferred",
      "inputs": [
        {
          "name": "previousOwner",
          "type": "address",
          "indexed": true,
          "internalType": "address"
        },
        {
          "name": "newOwner",
          "type": "address",
          "indexed": true,
          "internalType": "address"
        }
      ],
      "anonymous": false
    },
    {
      "type": "error",
      "name": "DuplicateApplication",
      "inputs": []
    },
    {
      "type": "error",
      "name": "DuplicateImplementation",
      "inputs": []
    }
  ],
  "bytecode": {
    "object": "0x608060405234801561001057600080fd5b5061001a3361001f565b61006f565b600080546001600160a01b038381166001600160a01b0319831681178455604051919092169283917f8be0079c531659141344cd1fd0a4f28419497f9722a3daafe3b4186f6b6457e09190a35050565b6108d98061007e6000396000f3fe6080604052600436106100865760003560e01c8063ae48239811610059578063ae4823981461010f578063c55457b41461012f578063e506f56f1461014f578063ef5714d21461016f578063f2fde38b1461018f57600080fd5b80634c74dc131461008b5780636816a454146100c7578063715018a6146100da5780638da5cb5b146100f1575b600080fd5b34801561009757600080fd5b506100ab6100a63660046106da565b6101af565b6040516001600160a01b03909116815260200160405180910390f35b6100ab6100d5366004610747565b61023d565b3480156100e657600080fd5b506100ef610354565b005b3480156100fd57600080fd5b506000546001600160a01b03166100ab565b34801561011b57600080fd5b506100ab61012a3660046107ab565b610368565b34801561013b57600080fd5b506100ab61014a3660046107f0565b6103b7565b34801561015b57600080fd5b506100ab61016a366004610747565b6103e8565b34801561017b57600080fd5b506100ab61018a3660046106da565b610405565b34801561019b57600080fd5b506100ef6101aa366004610825565b6104f7565b600061023584846040516020016101c792919061087e565b60408051601f1981840301815282825280516020918201208651878301206001600160f81b0319858401526bffffffffffffffffffffffff193060601b1660218601526035850191909152605580850191909152825180850390910181526075909301909152815191012090565b949350505050565b6000610247610575565b60006001600160a01b03166001846040516102629190610897565b908152604051908190036020019020546001600160a01b03161461029957604051638097e15760e01b815260040160405180910390fd5b60006102ce846040516020016102af9190610897565b6040516020818303038152906040528051906020012060001c846105cf565b9050806001856040516102e19190610897565b90815260405190819003602001812080546001600160a01b039384166001600160a01b03199091161790559082169061031b908690610897565b604051908190038120907f51752d99555a34f98262ca70a55cfbd09e9305271c0726fc6b7174ec059388c390600090a390505b92915050565b61035c610575565b61036660006105e7565b565b600060026000848460405160200161038192919061087e565b60408051808303601f19018152918152815160209283012083529082019290925201600020546001600160a01b03169392505050565b60006001826040516103c99190610897565b908152604051908190036020019020546001600160a01b031692915050565b60006103fe836040516020016101c79190610897565b9392505050565b600061040f610575565b6000848460405160200161042492919061087e565b60408051601f198184030181529181528151602092830120600081815260029093529120549091506001600160a01b03161561047357604051630a39a79d60e21b815260040160405180910390fd5b600061047f82856105cf565b6000838152600260205260409081902080546001600160a01b0319166001600160a01b03841690811790915590519192509086906104be908990610897565b604051908190038120907fb17eeffa6ba2b444a633970c353fbd24f197e0afac2a341af49ad3a8e78cf18690600090a495945050505050565b6104ff610575565b6001600160a01b0381166105695760405162461bcd60e51b815260206004820152602660248201527f4f776e61626c653a206e6577206f776e657220697320746865207a65726f206160448201526564647265737360d01b60648201526084015b60405180910390fd5b610572816105e7565b50565b6000546001600160a01b031633146103665760405162461bcd60e51b815260206004820181905260248201527f4f776e61626c653a2063616c6c6572206973206e6f7420746865206f776e65726044820152606401610560565b60008282516020840134f59050803b61034e57600080fd5b600080546001600160a01b038381166001600160a01b0319831681178455604051919092169283917f8be0079c531659141344cd1fd0a4f28419497f9722a3daafe3b4186f6b6457e09190a35050565b634e487b7160e01b600052604160045260246000fd5b600082601f83011261065e57600080fd5b813567ffffffffffffffff8082111561067957610679610637565b604051601f8301601f19908116603f011681019082821181831017156106a1576106a1610637565b816040528381528660208588010111156106ba57600080fd5b836020870160208301376000602085830101528094505050505092915050565b6000806000606084860312156106ef57600080fd5b833567ffffffffffffffff8082111561070757600080fd5b6107138783880161064d565b945060208601359350604086013591508082111561073057600080fd5b5061073d8682870161064d565b9150509250925092565b6000806040838503121561075a57600080fd5b823567ffffffffffffffff8082111561077257600080fd5b61077e8683870161064d565b9350602085013591508082111561079457600080fd5b506107a18582860161064d565b9150509250929050565b600080604083850312156107be57600080fd5b823567ffffffffffffffff8111156107d557600080fd5b6107e18582860161064d565b95602094909401359450505050565b60006020828403121561080257600080fd5b813567ffffffffffffffff81111561081957600080fd5b6102358482850161064d565b60006020828403121561083757600080fd5b81356001600160a01b03811681146103fe57600080fd5b6000815160005b8181101561086f5760208185018101518683015201610855565b50600093019283525090919050565b600061088a828561084e565b9283525050602001919050565b60006103fe828461084e56fea26469706673582212209863dadef9c312bafa9230510180d3965aea68230d19bd76d8454f134fa3fce764736f6c63430008120033",
    "linkReferences": {}
  },
  "methodIdentifiers": {
    "deployApplication(string,bytes)": "6816a454",
    "deployImplementation(string,uint256,bytes)": "ef5714d2",
    "getApplicationAddress(string)": "c55457b4",
    "getComputedAddress(string,bytes)": "e506f56f",
    "getComputedAddress(string,uint256,bytes)": "4c74dc13",
    "getImplementationAddress(string,uint256)": "ae482398",
    "owner()": "8da5cb5b",
    "renounceOwnership()": "715018a6",
    "transferOwnership(address)": "f2fde38b"
  },
  "id": 70
}