{
  "_format": "hh-sol-artifact-1",
  "contractName": "PrizeV2",
  "sourceName": "src/PrizeV2.sol",
  "abi": [
    {
      "inputs": [
        {
          "internalType": "string",
          "name": "name",
          "type": "string"
        },
        {
          "internalType": "string",
          "name": "symbol",
          "type": "string"
        },
        {
          "internalType": "string",
          "name": "initialBaseURI",
          "type": "string"
        },
        {
          "internalType": "uint256",
          "name": "weiPerPrize",
          "type": "uint256"
        }
      ],
      "stateMutability": "nonpayable",
      "type": "constructor"
    },
    {
      "inputs": [],
      "name": "CannotTransferSoulBoundNFT",
      "type": "error"
    },
    {
      "inputs": [],
      "name": "EOAAddressDetected",
      "type": "error"
    },
    {
      "inputs": [],
      "name": "FailedToSendETH",
      "type": "error"
    },
    {
      "inputs": [],
      "name": "InsufficientBalance",
      "type": "error"
    },
    {
      "inputs": [],
      "name": "UnauthorizedToBurn",
      "type": "error"
    },
    {
      "inputs": [],
      "name": "UnauthorizedToMint",
      "type": "error"
    },
    {
      "inputs": [],
      "name": "ZeroAddressDetected",
      "type": "error"
    },
    {
      "anonymous": false,
      "inputs": [
        {
          "indexed": true,
          "internalType": "address",
          "name": "owner",
          "type": "address"
        },
        {
          "indexed": true,
          "internalType": "address",
          "name": "approved",
          "type": "address"
        },
        {
          "indexed": true,
          "internalType": "uint256",
          "name": "tokenId",
          "type": "uint256"
        }
      ],
      "name": "Approval",
      "type": "event"
    },
    {
      "anonymous": false,
      "inputs": [
        {
          "indexed": true,
          "internalType": "address",
          "name": "owner",
          "type": "address"
        },
        {
          "indexed": true,
          "internalType": "address",
          "name": "operator",
          "type": "address"
        },
        {
          "indexed": false,
          "internalType": "bool",
          "name": "approved",
          "type": "bool"
        }
      ],
      "name": "ApprovalForAll",
      "type": "event"
    },
    {
      "anonymous": false,
      "inputs": [
        {
          "indexed": true,
          "internalType": "string",
          "name": "oldURI",
          "type": "string"
        },
        {
          "indexed": true,
          "internalType": "string",
          "name": "newURI",
          "type": "string"
        }
      ],
      "name": "BaseURISet",
      "type": "event"
    },
    {
      "anonymous": false,
      "inputs": [
        {
          "indexed": true,
          "internalType": "address",
          "name": "oldBurner",
          "type": "address"
        },
        {
          "indexed": true,
          "internalType": "address",
          "name": "newBurner",
          "type": "address"
        }
      ],
      "name": "BurnerSet",
      "type": "event"
    },
    {
      "anonymous": false,
      "inputs": [
        {
          "indexed": true,
          "internalType": "address",
          "name": "recipient",
          "type": "address"
        },
        {
          "indexed": true,
          "internalType": "uint256",
          "name": "amount",
          "type": "uint256"
        }
      ],
      "name": "ETHSent",
      "type": "event"
    },
    {
      "anonymous": false,
      "inputs": [
        {
          "indexed": true,
          "internalType": "address",
          "name": "previousOwner",
          "type": "address"
        },
        {
          "indexed": true,
          "internalType": "address",
          "name": "newOwner",
          "type": "address"
        }
      ],
      "name": "OwnershipTransferred",
      "type": "event"
    },
    {
      "anonymous": false,
      "inputs": [
        {
          "indexed": true,
          "internalType": "uint256",
          "name": "tokenId",
          "type": "uint256"
        }
      ],
      "name": "PrizeRedeemed",
      "type": "event"
    },
    {
      "anonymous": false,
      "inputs": [
        {
          "indexed": true,
          "internalType": "address",
          "name": "from",
          "type": "address"
        },
        {
          "indexed": true,
          "internalType": "address",
          "name": "to",
          "type": "address"
        },
        {
          "indexed": true,
          "internalType": "uint256",
          "name": "tokenId",
          "type": "uint256"
        }
      ],
      "name": "Transfer",
      "type": "event"
    },
    {
      "anonymous": false,
      "inputs": [
        {
          "indexed": true,
          "internalType": "address",
          "name": "oldUChanceContract",
          "type": "address"
        },
        {
          "indexed": true,
          "internalType": "address",
          "name": "newUChanceContract",
          "type": "address"
        }
      ],
      "name": "UChanceContractSet",
      "type": "event"
    },
    {
      "inputs": [
        {
          "internalType": "address",
          "name": "to",
          "type": "address"
        },
        {
          "internalType": "uint256",
          "name": "tokenId",
          "type": "uint256"
        }
      ],
      "name": "approve",
      "outputs": [],
      "stateMutability": "nonpayable",
      "type": "function"
    },
    {
      "inputs": [],
      "name": "balance",
      "outputs": [
        {
          "internalType": "uint256",
          "name": "",
          "type": "uint256"
        }
      ],
      "stateMutability": "view",
      "type": "function"
    },
    {
      "inputs": [
        {
          "internalType": "address",
          "name": "owner",
          "type": "address"
        }
      ],
      "name": "balanceOf",
      "outputs": [
        {
          "internalType": "uint256",
          "name": "",
          "type": "uint256"
        }
      ],
      "stateMutability": "view",
      "type": "function"
    },
    {
      "inputs": [],
      "name": "baseURI",
      "outputs": [
        {
          "internalType": "string",
          "name": "",
          "type": "string"
        }
      ],
      "stateMutability": "view",
      "type": "function"
    },
    {
      "inputs": [
        {
          "internalType": "uint256",
          "name": "tokenId",
          "type": "uint256"
        }
      ],
      "name": "burn",
      "outputs": [],
      "stateMutability": "nonpayable",
      "type": "function"
    },
    {
      "inputs": [
        {
          "internalType": "uint256",
          "name": "tokenId",
          "type": "uint256"
        }
      ],
      "name": "getApproved",
      "outputs": [
        {
          "internalType": "address",
          "name": "",
          "type": "address"
        }
      ],
      "stateMutability": "view",
      "type": "function"
    },
    {
      "inputs": [
        {
          "internalType": "address",
          "name": "owner",
          "type": "address"
        },
        {
          "internalType": "address",
          "name": "operator",
          "type": "address"
        }
      ],
      "name": "isApprovedForAll",
      "outputs": [
        {
          "internalType": "bool",
          "name": "",
          "type": "bool"
        }
      ],
      "stateMutability": "view",
      "type": "function"
    },
    {
      "inputs": [
        {
          "internalType": "address[]",
          "name": "recipients",
          "type": "address[]"
        },
        {
          "internalType": "enum PrizeV2.LuckyDraw",
          "name": "luckyDraw",
          "type": "uint8"
        },
        {
          "internalType": "uint256",
          "name": "round",
          "type": "uint256"
        }
      ],
      "name": "mint",
      "outputs": [],
      "stateMutability": "payable",
      "type": "function"
    },
    {
      "inputs": [],
      "name": "name",
      "outputs": [
        {
          "internalType": "string",
          "name": "",
          "type": "string"
        }
      ],
      "stateMutability": "view",
      "type": "function"
    },
    {
      "inputs": [
        {
          "internalType": "address",
          "name": "addr",
          "type": "address"
        }
      ],
      "name": "nonce",
      "outputs": [
        {
          "internalType": "uint256",
          "name": "",
          "type": "uint256"
        }
      ],
      "stateMutability": "view",
      "type": "function"
    },
    {
      "inputs": [],
      "name": "owner",
      "outputs": [
        {
          "internalType": "address",
          "name": "",
          "type": "address"
        }
      ],
      "stateMutability": "view",
      "type": "function"
    },
    {
      "inputs": [
        {
          "internalType": "uint256",
          "name": "tokenId",
          "type": "uint256"
        }
      ],
      "name": "ownerOf",
      "outputs": [
        {
          "internalType": "address",
          "name": "",
          "type": "address"
        }
      ],
      "stateMutability": "view",
      "type": "function"
    },
    {
      "inputs": [],
      "name": "renounceOwnership",
      "outputs": [],
      "stateMutability": "nonpayable",
      "type": "function"
    },
    {
      "inputs": [
        {
          "internalType": "address",
          "name": "from",
          "type": "address"
        },
        {
          "internalType": "address",
          "name": "to",
          "type": "address"
        },
        {
          "internalType": "uint256",
          "name": "tokenId",
          "type": "uint256"
        }
      ],
      "name": "safeTransferFrom",
      "outputs": [],
      "stateMutability": "nonpayable",
      "type": "function"
    },
    {
      "inputs": [
        {
          "internalType": "address",
          "name": "from",
          "type": "address"
        },
        {
          "internalType": "address",
          "name": "to",
          "type": "address"
        },
        {
          "internalType": "uint256",
          "name": "tokenId",
          "type": "uint256"
        },
        {
          "internalType": "bytes",
          "name": "data",
          "type": "bytes"
        }
      ],
      "name": "safeTransferFrom",
      "outputs": [],
      "stateMutability": "nonpayable",
      "type": "function"
    },
    {
      "inputs": [
        {
          "internalType": "address",
          "name": "operator",
          "type": "address"
        },
        {
          "internalType": "bool",
          "name": "approved",
          "type": "bool"
        }
      ],
      "name": "setApprovalForAll",
      "outputs": [],
      "stateMutability": "nonpayable",
      "type": "function"
    },
    {
      "inputs": [
        {
          "internalType": "string",
          "name": "newBaseURI",
          "type": "string"
        }
      ],
      "name": "setBaseURI",
      "outputs": [],
      "stateMutability": "nonpayable",
      "type": "function"
    },
    {
      "inputs": [
        {
          "internalType": "address",
          "name": "uchance",
          "type": "address"
        }
      ],
      "name": "setUChanceContract",
      "outputs": [],
      "stateMutability": "nonpayable",
      "type": "function"
    },
    {
      "inputs": [
        {
          "internalType": "bytes4",
          "name": "interfaceId",
          "type": "bytes4"
        }
      ],
      "name": "supportsInterface",
      "outputs": [
        {
          "internalType": "bool",
          "name": "",
          "type": "bool"
        }
      ],
      "stateMutability": "view",
      "type": "function"
    },
    {
      "inputs": [],
      "name": "symbol",
      "outputs": [
        {
          "internalType": "string",
          "name": "",
          "type": "string"
        }
      ],
      "stateMutability": "view",
      "type": "function"
    },
    {
      "inputs": [
        {
          "internalType": "uint256",
          "name": "tokenId",
          "type": "uint256"
        }
      ],
      "name": "tokenURI",
      "outputs": [
        {
          "internalType": "string",
          "name": "",
          "type": "string"
        }
      ],
      "stateMutability": "view",
      "type": "function"
    },
    {
      "inputs": [],
      "name": "totalSupply",
      "outputs": [
        {
          "internalType": "uint256",
          "name": "",
          "type": "uint256"
        }
      ],
      "stateMutability": "view",
      "type": "function"
    },
    {
      "inputs": [
        {
          "internalType": "address",
          "name": "from",
          "type": "address"
        },
        {
          "internalType": "address",
          "name": "to",
          "type": "address"
        },
        {
          "internalType": "uint256",
          "name": "tokenId",
          "type": "uint256"
        }
      ],
      "name": "transferFrom",
      "outputs": [],
      "stateMutability": "nonpayable",
      "type": "function"
    },
    {
      "inputs": [
        {
          "internalType": "address",
          "name": "newOwner",
          "type": "address"
        }
      ],
      "name": "transferOwnership",
      "outputs": [],
      "stateMutability": "nonpayable",
      "type": "function"
    },
    {
      "inputs": [],
      "name": "uchanceContract",
      "outputs": [
        {
          "internalType": "address",
          "name": "",
          "type": "address"
        }
      ],
      "stateMutability": "view",
      "type": "function"
    },
    {
      "inputs": [
        {
          "internalType": "address",
          "name": "recipient",
          "type": "address"
        },
        {
          "internalType": "uint256",
          "name": "amount",
          "type": "uint256"
        }
      ],
      "name": "withdraw",
      "outputs": [],
      "stateMutability": "nonpayable",
      "type": "function"
    },
    {
      "stateMutability": "payable",
      "type": "receive"
    }
  ],
  "bytecode": "0x60a060405261010b600a553480156200001757600080fd5b506040516200277c3803806200277c8339810160408190526200003a91620001ad565b838360006200004a8382620002d5565b506001620000598282620002d5565b50505062000076620000706200009260201b60201c565b62000096565b6009620000848382620002d5565b5060805250620003a1915050565b3390565b600680546001600160a01b038381166001600160a01b0319831681179093556040519116919082907f8be0079c531659141344cd1fd0a4f28419497f9722a3daafe3b4186f6b6457e090600090a35050565b634e487b7160e01b600052604160045260246000fd5b600082601f8301126200011057600080fd5b81516001600160401b03808211156200012d576200012d620000e8565b604051601f8301601f19908116603f01168101908282118183101715620001585762000158620000e8565b816040528381526020925086838588010111156200017557600080fd5b600091505b838210156200019957858201830151818301840152908201906200017a565b600093810190920192909252949350505050565b60008060008060808587031215620001c457600080fd5b84516001600160401b0380821115620001dc57600080fd5b620001ea88838901620000fe565b955060208701519150808211156200020157600080fd5b6200020f88838901620000fe565b945060408701519150808211156200022657600080fd5b506200023587828801620000fe565b606096909601519497939650505050565b600181811c908216806200025b57607f821691505b6020821081036200027c57634e487b7160e01b600052602260045260246000fd5b50919050565b601f821115620002d057600081815260208120601f850160051c81016020861015620002ab5750805b601f850160051c820191505b81811015620002cc57828155600101620002b7565b5050505b505050565b81516001600160401b03811115620002f157620002f1620000e8565b620003098162000302845462000246565b8462000282565b602080601f831160018114620003415760008415620003285750858301515b600019600386901b1c1916600185901b178555620002cc565b600085815260208120601f198616915b82811015620003725788860151825594840194600190910190840162000351565b5085821015620003915787850151600019600388901b60f8161c191681555b5050505050600190811b01905550565b6080516123b1620003cb6000396000818161072c015281816109d70152610a5f01526123b16000f3fe6080604052600436106101855760003560e01c80636c0360eb116100d1578063a22cb4651161008a578063c87b56dd11610064578063c87b56dd14610458578063e985e9c514610478578063f2fde38b14610498578063f3fef3a3146104b857600080fd5b8063a22cb46514610405578063b69ef8a814610425578063b88d4fde1461043857600080fd5b80636c0360eb1461035257806370a082311461036757806370ae92d214610387578063715018a6146103bd5780638da5cb5b146103d257806395d89b41146103f057600080fd5b806323b872dd1161013e57806342966c681161011857806342966c68146102d257806355f804b3146102f25780635dd7ae11146103125780636352211e1461033257600080fd5b806323b872dd14610274578063304b7a621461029457806342842e0e146102b257600080fd5b806301ffc9a71461019157806306fdde03146101c6578063081812fc146101e8578063095ea7b3146102205780631714e2e71461024257806318160ddd1461025557600080fd5b3661018c57005b600080fd5b34801561019d57600080fd5b506101b16101ac366004611bc7565b6104d8565b60405190151581526020015b60405180910390f35b3480156101d257600080fd5b506101db61052a565b6040516101bd9190611c34565b3480156101f457600080fd5b50610208610203366004611c47565b6105bc565b6040516001600160a01b0390911681526020016101bd565b34801561022c57600080fd5b5061024061023b366004611c77565b6105e3565b005b610240610250366004611cf7565b6106fd565b34801561026157600080fd5b506007545b6040519081526020016101bd565b34801561028057600080fd5b5061024061028f366004611dbf565b610ae8565b3480156102a057600080fd5b506008546001600160a01b0316610208565b3480156102be57600080fd5b506102406102cd366004611dbf565b610b19565b3480156102de57600080fd5b506102406102ed366004611c47565b610b34565b3480156102fe57600080fd5b5061024061030d366004611e53565b610ba2565b34801561031e57600080fd5b5061024061032d366004611e9c565b610c0f565b34801561033e57600080fd5b5061020861034d366004611c47565b610cc0565b34801561035e57600080fd5b506101db610d20565b34801561037357600080fd5b50610266610382366004611e9c565b610d2f565b34801561039357600080fd5b506102666103a2366004611e9c565b6001600160a01b03166000908152600b602052604090205490565b3480156103c957600080fd5b50610240610db5565b3480156103de57600080fd5b506006546001600160a01b0316610208565b3480156103fc57600080fd5b506101db610dc9565b34801561041157600080fd5b50610240610420366004611eb7565b610dd8565b34801561043157600080fd5b5047610266565b34801561044457600080fd5b50610240610453366004611ef3565b610de3565b34801561046457600080fd5b506101db610473366004611c47565b610e15565b34801561048457600080fd5b506101b1610493366004611f6f565b610e7c565b3480156104a457600080fd5b506102406104b3366004611e9c565b610eaa565b3480156104c457600080fd5b506102406104d3366004611c77565b610f23565b60006001600160e01b031982166380ac58cd60e01b148061050957506001600160e01b03198216635b5e139f60e01b145b8061052457506301ffc9a760e01b6001600160e01b03198316145b92915050565b60606000805461053990611fa2565b80601f016020809104026020016040519081016040528092919081815260200182805461056590611fa2565b80156105b25780601f10610587576101008083540402835291602001916105b2565b820191906000526020600020905b81548152906001019060200180831161059557829003601f168201915b5050505050905090565b60006105c782610ffb565b506000908152600460205260409020546001600160a01b031690565b60006105ee82610cc0565b9050806001600160a01b0316836001600160a01b0316036106605760405162461bcd60e51b815260206004820152602160248201527f4552433732313a20617070726f76616c20746f2063757272656e74206f776e656044820152603960f91b60648201526084015b60405180910390fd5b336001600160a01b038216148061067c575061067c8133610e7c565b6106ee5760405162461bcd60e51b815260206004820152603d60248201527f4552433732313a20617070726f76652063616c6c6572206973206e6f7420746f60448201527f6b656e206f776e6572206f7220617070726f76656420666f7220616c6c0000006064820152608401610657565b6106f8838361105a565b505050565b6008546001600160a01b031633146107285760405163efbff93960e01b815260040160405180910390fd5b60007f000000000000000000000000000000000000000000000000000000000000000084516107579190611fec565b90504781111561077a57604051631e9acf1760e31b815260040160405180910390fd5b600083600381111561078e5761078e612003565b036107f1576107b9846000815181106107a9576107a9612019565b6020026020010151600a546110c8565b6001600a60008282546107cc919061202f565b925050819055506001600760008282546107e6919061202f565b9091555061097e9050565b600183600381111561080557610805612003565b03610891576000610815836110e2565b905060005b85518110156108715761085f86828151811061083857610838612019565b602002602001015183838151811061085257610852612019565b60200260200101516110c8565b8061086981612042565b91505061081a565b50805160076000828254610885919061202f565b9091555061097e915050565b60028360038111156108a5576108a5612003565b0361092757600060016108b9846003611fec565b6108c3919061205b565b905060005b8551811015610913576108f48682815181106108e6576108e6612019565b6020026020010151836110c8565b6108ff60018361202f565b91508061090b81612042565b9150506108c8565b50600360076000828254610885919061202f565b600383600381111561093b5761093b612003565b0361097e576109658460008151811061095657610956612019565b602002602001015160016110c8565b600160076000828254610978919061202f565b90915550505b600183600381111561099257610992612003565b14158061099f5750601582105b15610ae25760005b8451811015610ae05760008582815181106109c4576109c4612019565b60200260200101516001600160a01b03167f000000000000000000000000000000000000000000000000000000000000000060405160006040518083038185875af1925050503d8060008114610a36576040519150601f19603f3d011682016040523d82523d6000602084013e610a3b565b606091505b5050905080610a5d576040516338822c1360e11b815260040160405180910390fd5b7f0000000000000000000000000000000000000000000000000000000000000000868381518110610a9057610a90612019565b60200260200101516001600160a01b03167f07e522f923c81306583f6ac561a0b016b750def4b9fba3fc2198249b036905e560405160405180910390a35080610ad881612042565b9150506109a7565b505b50505050565b610af233826112ff565b610b0e5760405162461bcd60e51b81526004016106579061206e565b6106f883838361135e565b6106f883838360405180602001604052806000815250610de3565b6000818152600260205260409020546001600160a01b03163314610b6b5760405163508ace5560e01b815260040160405180910390fd5b610b74816114cf565b60405181907f54184fbaead06f1c5fc0666ec44034e1f045b561429b32872082c16fce3c0dc090600090a250565b610baa611572565b80604051610bb891906120bb565b60405180910390206009604051610bcf91906120d7565b604051908190038120907f2e0a5b969d96a99aee0b35787d9a60516a02ca6f528a5f66d3f936468d8f038290600090a36009610c0b828261219b565b5050565b610c17611572565b6001600160a01b038116610c3e57604051632887dd7560e11b815260040160405180910390fd5b610c47816115cc565b610c64576040516318d393c760e21b815260040160405180910390fd5b6008546040516001600160a01b038084169216907f6ba37f7c4f841587ebcca06e1c0513762411a1d917e683f291312ad937370c5b90600090a3600880546001600160a01b0319166001600160a01b0392909216919091179055565b6000818152600260205260408120546001600160a01b0316806105245760405162461bcd60e51b8152602060048201526018602482015277115490cdcc8c4e881a5b9d985b1a59081d1bdad95b88125160421b6044820152606401610657565b60606009805461053990611fa2565b60006001600160a01b038216610d995760405162461bcd60e51b815260206004820152602960248201527f4552433732313a2061646472657373207a65726f206973206e6f7420612076616044820152683634b21037bbb732b960b91b6064820152608401610657565b506001600160a01b031660009081526003602052604090205490565b610dbd611572565b610dc760006115ef565b565b60606001805461053990611fa2565b610c0b338383611641565b610ded33836112ff565b610e095760405162461bcd60e51b81526004016106579061206e565b610ae28484848461170f565b6060610e2082610ffb565b6000610e2a610d20565b90506000815111610e4a5760405180602001604052806000815250610e75565b80610e5484611742565b604051602001610e6592919061225b565b6040516020818303038152906040525b9392505050565b6001600160a01b03918216600090815260056020908152604080832093909416825291909152205460ff1690565b610eb2611572565b6001600160a01b038116610f175760405162461bcd60e51b815260206004820152602660248201527f4f776e61626c653a206e6577206f776e657220697320746865207a65726f206160448201526564647265737360d01b6064820152608401610657565b610f20816115ef565b50565b610f2b611572565b47811115610f4c57604051631e9acf1760e31b815260040160405180910390fd5b6000826001600160a01b03168260405160006040518083038185875af1925050503d8060008114610f99576040519150601f19603f3d011682016040523d82523d6000602084013e610f9e565b606091505b5050905080610fc0576040516338822c1360e11b815260040160405180910390fd5b60405182906001600160a01b038516907f07e522f923c81306583f6ac561a0b016b750def4b9fba3fc2198249b036905e590600090a3505050565b6000818152600260205260409020546001600160a01b0316610f205760405162461bcd60e51b8152602060048201526018602482015277115490cdcc8c4e881a5b9d985b1a59081d1bdad95b88125160421b6044820152606401610657565b600081815260046020526040902080546001600160a01b0319166001600160a01b038416908117909155819061108f82610cc0565b6001600160a01b03167f8c5be1e5ebec7d5bd14f71427d1e84f3dd0314c0f7b2291e5b200ac8c7c3b92560405160405180910390a45050565b610c0b8282604051806020016040528060008152506117d5565b6060600682101561113c57604080516001808252818301909252906020808301908036833701905050905061111882601061202f565b8160008151811061112b5761112b612019565b602002602001018181525050919050565b600b8210156111d75760408051600580825260c08201909252906020820160a080368337019050509050600061117360068461205b565b61117e906005611fec565b61118990601661202f565b905060005b60058110156111d0576111a1818361202f565b8382815181106111b3576111b3612019565b6020908102919091010152806111c881612042565b91505061118e565b5050919050565b601582101561126d5760408051600a80825261016082019092529060208201610140803683370190505090506000611210600b8461205b565b61121b90600a611fec565b61122690602f61202f565b905060005b600a8110156111d05761123e818361202f565b83828151811061125057611250612019565b60209081029190910101528061126581612042565b91505061122b565b6040805160148082526102a08201909252906020820161028080368337019050509050600061129d60158461205b565b6112a8906014611fec565b6112b390609361202f565b905060005b60148110156111d0576112cb818361202f565b8382815181106112dd576112dd612019565b6020908102919091010152806112f281612042565b9150506112b8565b919050565b60008061130b83610cc0565b9050806001600160a01b0316846001600160a01b0316148061133257506113328185610e7c565b806113565750836001600160a01b031661134b846105bc565b6001600160a01b0316145b949350505050565b826001600160a01b031661137182610cc0565b6001600160a01b0316146113975760405162461bcd60e51b81526004016106579061228a565b6001600160a01b0382166113f95760405162461bcd60e51b8152602060048201526024808201527f4552433732313a207472616e7366657220746f20746865207a65726f206164646044820152637265737360e01b6064820152608401610657565b6114068383836001611808565b826001600160a01b031661141982610cc0565b6001600160a01b03161461143f5760405162461bcd60e51b81526004016106579061228a565b600081815260046020908152604080832080546001600160a01b03199081169091556001600160a01b0387811680865260038552838620805460001901905590871680865283862080546001019055868652600290945282852080549092168417909155905184937fddf252ad1be2c89b69c2b068fc378daa952ba7f163c4a11628f55a4df523b3ef91a4505050565b60006114da82610cc0565b90506114ea816000846001611808565b6114f382610cc0565b600083815260046020908152604080832080546001600160a01b03199081169091556001600160a01b0385168085526003845282852080546000190190558785526002909352818420805490911690555192935084927fddf252ad1be2c89b69c2b068fc378daa952ba7f163c4a11628f55a4df523b3ef908390a45050565b6006546001600160a01b03163314610dc75760405162461bcd60e51b815260206004820181905260248201527f4f776e61626c653a2063616c6c6572206973206e6f7420746865206f776e65726044820152606401610657565b6000813b8082036115e05750600092915050565b50600192915050565b50919050565b600680546001600160a01b038381166001600160a01b0319831681179093556040519116919082907f8be0079c531659141344cd1fd0a4f28419497f9722a3daafe3b4186f6b6457e090600090a35050565b816001600160a01b0316836001600160a01b0316036116a25760405162461bcd60e51b815260206004820152601960248201527f4552433732313a20617070726f766520746f2063616c6c6572000000000000006044820152606401610657565b6001600160a01b03838116600081815260056020908152604080832094871680845294825291829020805460ff191686151590811790915591519182527f17307eab39ab6107e8899845ad3d59bd9653f200f220920489ca2b5937696c31910160405180910390a3505050565b61171a84848461135e565b6117268484848461183f565b610ae25760405162461bcd60e51b8152600401610657906122cf565b6060600061174f83611940565b600101905060008167ffffffffffffffff81111561176f5761176f611ca1565b6040519080825280601f01601f191660200182016040528015611799576020820181803683370190505b5090508181016020015b600019016f181899199a1a9b1b9c1cb0b131b232b360811b600a86061a8153600a85049450846117a357509392505050565b6117df8383611a18565b6117ec600084848461183f565b6106f85760405162461bcd60e51b8152600401610657906122cf565b6001600160a01b03841615610ae2576001600160a01b03831615610ae257604051634aec9f1960e01b815260040160405180910390fd5b60006001600160a01b0384163b1561193557604051630a85bd0160e11b81526001600160a01b0385169063150b7a0290611883903390899088908890600401612321565b6020604051808303816000875af19250505080156118be575060408051601f3d908101601f191682019092526118bb9181019061235e565b60015b61191b573d8080156118ec576040519150601f19603f3d011682016040523d82523d6000602084013e6118f1565b606091505b5080516000036119135760405162461bcd60e51b8152600401610657906122cf565b805181602001fd5b6001600160e01b031916630a85bd0160e11b149050611356565b506001949350505050565b60008072184f03e93ff9f4daa797ed6e38ed64bf6a1f0160401b831061197f5772184f03e93ff9f4daa797ed6e38ed64bf6a1f0160401b830492506040015b6d04ee2d6d415b85acef810000000083106119ab576d04ee2d6d415b85acef8100000000830492506020015b662386f26fc1000083106119c957662386f26fc10000830492506010015b6305f5e10083106119e1576305f5e100830492506008015b61271083106119f557612710830492506004015b60648310611a07576064830492506002015b600a83106105245760010192915050565b6001600160a01b038216611a6e5760405162461bcd60e51b815260206004820181905260248201527f4552433732313a206d696e7420746f20746865207a65726f20616464726573736044820152606401610657565b6000818152600260205260409020546001600160a01b031615611ad35760405162461bcd60e51b815260206004820152601c60248201527f4552433732313a20746f6b656e20616c7265616479206d696e746564000000006044820152606401610657565b611ae1600083836001611808565b6000818152600260205260409020546001600160a01b031615611b465760405162461bcd60e51b815260206004820152601c60248201527f4552433732313a20746f6b656e20616c7265616479206d696e746564000000006044820152606401610657565b6001600160a01b038216600081815260036020908152604080832080546001019055848352600290915280822080546001600160a01b0319168417905551839291907fddf252ad1be2c89b69c2b068fc378daa952ba7f163c4a11628f55a4df523b3ef908290a45050565b6001600160e01b031981168114610f2057600080fd5b600060208284031215611bd957600080fd5b8135610e7581611bb1565b60005b83811015611bff578181015183820152602001611be7565b50506000910152565b60008151808452611c20816020860160208601611be4565b601f01601f19169290920160200192915050565b602081526000610e756020830184611c08565b600060208284031215611c5957600080fd5b5035919050565b80356001600160a01b03811681146112fa57600080fd5b60008060408385031215611c8a57600080fd5b611c9383611c60565b946020939093013593505050565b634e487b7160e01b600052604160045260246000fd5b604051601f8201601f1916810167ffffffffffffffff81118282101715611ce057611ce0611ca1565b604052919050565b8035600481106112fa57600080fd5b600080600060608486031215611d0c57600080fd5b833567ffffffffffffffff80821115611d2457600080fd5b818601915086601f830112611d3857600080fd5b8135602082821115611d4c57611d4c611ca1565b8160051b9250611d5d818401611cb7565b828152928401810192818101908a851115611d7757600080fd5b948201945b84861015611d9c57611d8d86611c60565b82529482019490820190611d7c565b9750611dab9050888201611ce8565b955050505050604084013590509250925092565b600080600060608486031215611dd457600080fd5b611ddd84611c60565b9250611deb60208501611c60565b9150604084013590509250925092565b600067ffffffffffffffff831115611e1557611e15611ca1565b611e28601f8401601f1916602001611cb7565b9050828152838383011115611e3c57600080fd5b828260208301376000602084830101529392505050565b600060208284031215611e6557600080fd5b813567ffffffffffffffff811115611e7c57600080fd5b8201601f81018413611e8d57600080fd5b61135684823560208401611dfb565b600060208284031215611eae57600080fd5b610e7582611c60565b60008060408385031215611eca57600080fd5b611ed383611c60565b915060208301358015158114611ee857600080fd5b809150509250929050565b60008060008060808587031215611f0957600080fd5b611f1285611c60565b9350611f2060208601611c60565b925060408501359150606085013567ffffffffffffffff811115611f4357600080fd5b8501601f81018713611f5457600080fd5b611f6387823560208401611dfb565b91505092959194509250565b60008060408385031215611f8257600080fd5b611f8b83611c60565b9150611f9960208401611c60565b90509250929050565b600181811c90821680611fb657607f821691505b6020821081036115e957634e487b7160e01b600052602260045260246000fd5b634e487b7160e01b600052601160045260246000fd5b808202811582820484141761052457610524611fd6565b634e487b7160e01b600052602160045260246000fd5b634e487b7160e01b600052603260045260246000fd5b8082018082111561052457610524611fd6565b60006001820161205457612054611fd6565b5060010190565b8181038181111561052457610524611fd6565b6020808252602d908201527f4552433732313a2063616c6c6572206973206e6f7420746f6b656e206f776e6560408201526c1c881bdc88185c1c1c9bdd9959609a1b606082015260800190565b600082516120cd818460208701611be4565b9190910192915050565b60008083546120e581611fa2565b600182811680156120fd576001811461211257612141565b60ff1984168752821515830287019450612141565b8760005260208060002060005b858110156121385781548a82015290840190820161211f565b50505082870194505b50929695505050505050565b601f8211156106f857600081815260208120601f850160051c810160208610156121745750805b601f850160051c820191505b8181101561219357828155600101612180565b505050505050565b815167ffffffffffffffff8111156121b5576121b5611ca1565b6121c9816121c38454611fa2565b8461214d565b602080601f8311600181146121fe57600084156121e65750858301515b600019600386901b1c1916600185901b178555612193565b600085815260208120601f198616915b8281101561222d5788860151825594840194600190910190840161220e565b508582101561224b5787850151600019600388901b60f8161c191681555b5050505050600190811b01905550565b6000835161226d818460208801611be4565b835190830190612281818360208801611be4565b01949350505050565b60208082526025908201527f4552433732313a207472616e736665722066726f6d20696e636f72726563742060408201526437bbb732b960d91b606082015260800190565b60208082526032908201527f4552433732313a207472616e7366657220746f206e6f6e20455243373231526560408201527131b2b4bb32b91034b6b83632b6b2b73a32b960711b606082015260800190565b6001600160a01b038581168252841660208201526040810183905260806060820181905260009061235490830184611c08565b9695505050505050565b60006020828403121561237057600080fd5b8151610e7581611bb156fea2646970667358221220aa10e5a12628f4179277ed7b44ad75275a58dd7d41a5d6e3325b8f2e182e9e2e64736f6c63430008120033",
  "linkReferences": {},
  "deployedLinkReferences": {}
}