{
  "abi": [
    {
      "type": "constructor",
      "inputs": [
        {
          "name": "name_",
          "type": "string",
          "internalType": "string"
        },
        {
          "name": "symbol_",
          "type": "string",
          "internalType": "string"
        },
        {
          "name": "initialBaseURI_",
          "type": "string",
          "internalType": "string"
        }
      ],
      "stateMutability": "nonpayable"
    },
    {
      "type": "function",
      "name": "balanceOf",
      "inputs": [
        {
          "name": "account",
          "type": "address",
          "internalType": "address"
        },
        {
          "name": "id",
          "type": "uint256",
          "internalType": "uint256"
        }
      ],
      "outputs": [
        {
          "name": "",
          "type": "uint256",
          "internalType": "uint256"
        }
      ],
      "stateMutability": "view"
    },
    {
      "type": "function",
      "name": "balanceOfBatch",
      "inputs": [
        {
          "name": "accounts",
          "type": "address[]",
          "internalType": "address[]"
        },
        {
          "name": "ids",
          "type": "uint256[]",
          "internalType": "uint256[]"
        }
      ],
      "outputs": [
        {
          "name": "",
          "type": "uint256[]",
          "internalType": "uint256[]"
        }
      ],
      "stateMutability": "view"
    },
    {
      "type": "function",
      "name": "isApprovedForAll",
      "inputs": [
        {
          "name": "account",
          "type": "address",
          "internalType": "address"
        },
        {
          "name": "operator",
          "type": "address",
          "internalType": "address"
        }
      ],
      "outputs": [
        {
          "name": "",
          "type": "bool",
          "internalType": "bool"
        }
      ],
      "stateMutability": "view"
    },
    {
      "type": "function",
      "name": "mint",
      "inputs": [
        {
          "name": "recipient",
          "type": "address",
          "internalType": "address"
        },
        {
          "name": "tokenId",
          "type": "uint256",
          "internalType": "uint256"
        },
        {
          "name": "quantity",
          "type": "uint256",
          "internalType": "uint256"
        }
      ],
      "outputs": [],
      "stateMutability": "payable"
    },
    {
      "type": "function",
      "name": "name",
      "inputs": [],
      "outputs": [
        {
          "name": "",
          "type": "string",
          "internalType": "string"
        }
      ],
      "stateMutability": "view"
    },
    {
      "type": "function",
      "name": "owner",
      "inputs": [],
      "outputs": [
        {
          "name": "",
          "type": "address",
          "internalType": "address"
        }
      ],
      "stateMutability": "view"
    },
    {
      "type": "function",
      "name": "renounceOwnership",
      "inputs": [],
      "outputs": [],
      "stateMutability": "nonpayable"
    },
    {
      "type": "function",
      "name": "safeBatchTransferFrom",
      "inputs": [
        {
          "name": "from",
          "type": "address",
          "internalType": "address"
        },
        {
          "name": "to",
          "type": "address",
          "internalType": "address"
        },
        {
          "name": "ids",
          "type": "uint256[]",
          "internalType": "uint256[]"
        },
        {
          "name": "amounts",
          "type": "uint256[]",
          "internalType": "uint256[]"
        },
        {
          "name": "data",
          "type": "bytes",
          "internalType": "bytes"
        }
      ],
      "outputs": [],
      "stateMutability": "nonpayable"
    },
    {
      "type": "function",
      "name": "safeTransferFrom",
      "inputs": [
        {
          "name": "from",
          "type": "address",
          "internalType": "address"
        },
        {
          "name": "to",
          "type": "address",
          "internalType": "address"
        },
        {
          "name": "id",
          "type": "uint256",
          "internalType": "uint256"
        },
        {
          "name": "amount",
          "type": "uint256",
          "internalType": "uint256"
        },
        {
          "name": "data",
          "type": "bytes",
          "internalType": "bytes"
        }
      ],
      "outputs": [],
      "stateMutability": "nonpayable"
    },
    {
      "type": "function",
      "name": "setApprovalForAll",
      "inputs": [
        {
          "name": "operator",
          "type": "address",
          "internalType": "address"
        },
        {
          "name": "approved",
          "type": "bool",
          "internalType": "bool"
        }
      ],
      "outputs": [],
      "stateMutability": "nonpayable"
    },
    {
      "type": "function",
      "name": "setBaseURI",
      "inputs": [
        {
          "name": "newBaseURI",
          "type": "string",
          "internalType": "string"
        }
      ],
      "outputs": [],
      "stateMutability": "nonpayable"
    },
    {
      "type": "function",
      "name": "supportsInterface",
      "inputs": [
        {
          "name": "interfaceId",
          "type": "bytes4",
          "internalType": "bytes4"
        }
      ],
      "outputs": [
        {
          "name": "",
          "type": "bool",
          "internalType": "bool"
        }
      ],
      "stateMutability": "view"
    },
    {
      "type": "function",
      "name": "symbol",
      "inputs": [],
      "outputs": [
        {
          "name": "",
          "type": "string",
          "internalType": "string"
        }
      ],
      "stateMutability": "view"
    },
    {
      "type": "function",
      "name": "totalBalances",
      "inputs": [
        {
          "name": "",
          "type": "uint256",
          "internalType": "uint256"
        }
      ],
      "outputs": [
        {
          "name": "",
          "type": "uint256",
          "internalType": "uint256"
        }
      ],
      "stateMutability": "view"
    },
    {
      "type": "function",
      "name": "totalSupply",
      "inputs": [],
      "outputs": [
        {
          "name": "",
          "type": "uint256",
          "internalType": "uint256"
        }
      ],
      "stateMutability": "view"
    },
    {
      "type": "function",
      "name": "transferOwnership",
      "inputs": [
        {
          "name": "newOwner",
          "type": "address",
          "internalType": "address"
        }
      ],
      "outputs": [],
      "stateMutability": "nonpayable"
    },
    {
      "type": "function",
      "name": "uri",
      "inputs": [
        {
          "name": "",
          "type": "uint256",
          "internalType": "uint256"
        }
      ],
      "outputs": [
        {
          "name": "",
          "type": "string",
          "internalType": "string"
        }
      ],
      "stateMutability": "view"
    },
    {
      "type": "event",
      "name": "ApprovalForAll",
      "inputs": [
        {
          "name": "account",
          "type": "address",
          "indexed": true,
          "internalType": "address"
        },
        {
          "name": "operator",
          "type": "address",
          "indexed": true,
          "internalType": "address"
        },
        {
          "name": "approved",
          "type": "bool",
          "indexed": false,
          "internalType": "bool"
        }
      ],
      "anonymous": false
    },
    {
      "type": "event",
      "name": "OwnershipTransferred",
      "inputs": [
        {
          "name": "previousOwner",
          "type": "address",
          "indexed": true,
          "internalType": "address"
        },
        {
          "name": "newOwner",
          "type": "address",
          "indexed": true,
          "internalType": "address"
        }
      ],
      "anonymous": false
    },
    {
      "type": "event",
      "name": "TransferBatch",
      "inputs": [
        {
          "name": "operator",
          "type": "address",
          "indexed": true,
          "internalType": "address"
        },
        {
          "name": "from",
          "type": "address",
          "indexed": true,
          "internalType": "address"
        },
        {
          "name": "to",
          "type": "address",
          "indexed": true,
          "internalType": "address"
        },
        {
          "name": "ids",
          "type": "uint256[]",
          "indexed": false,
          "internalType": "uint256[]"
        },
        {
          "name": "values",
          "type": "uint256[]",
          "indexed": false,
          "internalType": "uint256[]"
        }
      ],
      "anonymous": false
    },
    {
      "type": "event",
      "name": "TransferSingle",
      "inputs": [
        {
          "name": "operator",
          "type": "address",
          "indexed": true,
          "internalType": "address"
        },
        {
          "name": "from",
          "type": "address",
          "indexed": true,
          "internalType": "address"
        },
        {
          "name": "to",
          "type": "address",
          "indexed": true,
          "internalType": "address"
        },
        {
          "name": "id",
          "type": "uint256",
          "indexed": false,
          "internalType": "uint256"
        },
        {
          "name": "value",
          "type": "uint256",
          "indexed": false,
          "internalType": "uint256"
        }
      ],
      "anonymous": false
    },
    {
      "type": "event",
      "name": "URI",
      "inputs": [
        {
          "name": "value",
          "type": "string",
          "indexed": false,
          "internalType": "string"
        },
        {
          "name": "id",
          "type": "uint256",
          "indexed": true,
          "internalType": "uint256"
        }
      ],
      "anonymous": false
    }
  ],
  "bytecode": {
    "object": "0x60806040523480156200001157600080fd5b5060405162001e0b38038062001e0b83398101604081905262000034916200019c565b80620000408162000073565b506200004c3362000085565b60046200005a8482620002bc565b506005620000698382620002bc565b5050505062000388565b6002620000818282620002bc565b5050565b600380546001600160a01b038381166001600160a01b0319831681179093556040519116919082907f8be0079c531659141344cd1fd0a4f28419497f9722a3daafe3b4186f6b6457e090600090a35050565b634e487b7160e01b600052604160045260246000fd5b600082601f830112620000ff57600080fd5b81516001600160401b03808211156200011c576200011c620000d7565b604051601f8301601f19908116603f01168101908282118183101715620001475762000147620000d7565b816040528381526020925086838588010111156200016457600080fd5b600091505b8382101562000188578582018301518183018401529082019062000169565b600093810190920192909252949350505050565b600080600060608486031215620001b257600080fd5b83516001600160401b0380821115620001ca57600080fd5b620001d887838801620000ed565b94506020860151915080821115620001ef57600080fd5b620001fd87838801620000ed565b935060408601519150808211156200021457600080fd5b506200022386828701620000ed565b9150509250925092565b600181811c908216806200024257607f821691505b6020821081036200026357634e487b7160e01b600052602260045260246000fd5b50919050565b601f821115620002b757600081815260208120601f850160051c81016020861015620002925750805b601f850160051c820191505b81811015620002b3578281556001016200029e565b5050505b505050565b81516001600160401b03811115620002d857620002d8620000d7565b620002f081620002e984546200022d565b8462000269565b602080601f8311600181146200032857600084156200030f5750858301515b600019600386901b1c1916600185901b178555620002b3565b600085815260208120601f198616915b82811015620003595788860151825594840194600190910190840162000338565b5085821015620003785787850151600019600388901b60f8161c191681555b5050505050600190811b01905550565b611a7380620003986000396000f3fe6080604052600436106100fd5760003560e01c806355f804b311610095578063a22cb46511610064578063a22cb46514610291578063e985e9c5146102b1578063ed7aae2b146102fa578063f242432a14610327578063f2fde38b1461034757600080fd5b806355f804b31461021f578063715018a61461023f5780638da5cb5b1461025457806395d89b411461027c57600080fd5b8063156e29f6116100d1578063156e29f6146101a757806318160ddd146101bc5780632eb2c2d6146101d25780634e1273f4146101f257600080fd5b8062fdd58e1461010257806301ffc9a71461013557806306fdde03146101655780630e89341c14610187575b600080fd5b34801561010e57600080fd5b5061012261011d366004611085565b610367565b6040519081526020015b60405180910390f35b34801561014157600080fd5b506101556101503660046110c5565b610400565b604051901515815260200161012c565b34801561017157600080fd5b5061017a610450565b60405161012c919061112f565b34801561019357600080fd5b5061017a6101a2366004611142565b6104de565b6101ba6101b536600461115b565b610572565b005b3480156101c857600080fd5b5061012260065481565b3480156101de57600080fd5b506101ba6101ed3660046112e4565b6105e0565b3480156101fe57600080fd5b5061021261020d36600461138e565b61062c565b60405161012c9190611494565b34801561022b57600080fd5b506101ba61023a3660046114a7565b610756565b34801561024b57600080fd5b506101ba61076a565b34801561026057600080fd5b506003546040516001600160a01b03909116815260200161012c565b34801561028857600080fd5b5061017a61077e565b34801561029d57600080fd5b506101ba6102ac3660046114f8565b61078b565b3480156102bd57600080fd5b506101556102cc366004611534565b6001600160a01b03918216600090815260016020908152604080832093909416825291909152205460ff1690565b34801561030657600080fd5b50610122610315366004611142565b60076020526000908152604090205481565b34801561033357600080fd5b506101ba610342366004611567565b61079a565b34801561035357600080fd5b506101ba6103623660046115cc565b6107df565b60006001600160a01b0383166103d75760405162461bcd60e51b815260206004820152602a60248201527f455243313135353a2061646472657373207a65726f206973206e6f742061207660448201526930b634b21037bbb732b960b11b60648201526084015b60405180910390fd5b506000818152602081815260408083206001600160a01b03861684529091529020545b92915050565b60006001600160e01b03198216636cdb3d1360e11b148061043157506001600160e01b031982166303a24d0760e21b145b806103fa57506301ffc9a760e01b6001600160e01b03198316146103fa565b6004805461045d906115e7565b80601f0160208091040260200160405190810160405280929190818152602001828054610489906115e7565b80156104d65780601f106104ab576101008083540402835291602001916104d6565b820191906000526020600020905b8154815290600101906020018083116104b957829003601f168201915b505050505081565b6060600280546104ed906115e7565b80601f0160208091040260200160405190810160405280929190818152602001828054610519906115e7565b80156105665780601f1061053b57610100808354040283529160200191610566565b820191906000526020600020905b81548152906001019060200180831161054957829003601f168201915b50505050509050919050565b600082815260076020526040812054900361059d576006805490600061059783611637565b91905055505b6105b883838360405180602001604052806000815250610855565b600082815260076020526040812080548392906105d6908490611650565b9091555050505050565b6001600160a01b0385163314806105fc57506105fc85336102cc565b6106185760405162461bcd60e51b81526004016103ce90611663565b6106258585858585610969565b5050505050565b606081518351146106915760405162461bcd60e51b815260206004820152602960248201527f455243313135353a206163636f756e747320616e6420696473206c656e677468604482015268040dad2e6dac2e8c6d60bb1b60648201526084016103ce565b6000835167ffffffffffffffff8111156106ad576106ad61118e565b6040519080825280602002602001820160405280156106d6578160200160208202803683370190505b50905060005b845181101561074e576107218582815181106106fa576106fa6116b1565b6020026020010151858381518110610714576107146116b1565b6020026020010151610367565b828281518110610733576107336116b1565b602090810291909101015261074781611637565b90506106dc565b509392505050565b61075e610b46565b61076781610ba0565b50565b610772610b46565b61077c6000610bac565b565b6005805461045d906115e7565b610796338383610bfe565b5050565b6001600160a01b0385163314806107b657506107b685336102cc565b6107d25760405162461bcd60e51b81526004016103ce90611663565b6106258585858585610cde565b6107e7610b46565b6001600160a01b03811661084c5760405162461bcd60e51b815260206004820152602660248201527f4f776e61626c653a206e6577206f776e657220697320746865207a65726f206160448201526564647265737360d01b60648201526084016103ce565b61076781610bac565b6001600160a01b0384166108b55760405162461bcd60e51b815260206004820152602160248201527f455243313135353a206d696e7420746f20746865207a65726f206164647265736044820152607360f81b60648201526084016103ce565b3360006108c185610e08565b905060006108ce85610e08565b90506000868152602081815260408083206001600160a01b038b16845290915281208054879290610900908490611650565b909155505060408051878152602081018790526001600160a01b03808a1692600092918716917fc3d58168c5ae7397731d063d5bbf3d657854427343f4c083240f7aacaa2d0f62910160405180910390a461096083600089898989610e53565b50505050505050565b81518351146109cb5760405162461bcd60e51b815260206004820152602860248201527f455243313135353a2069647320616e6420616d6f756e7473206c656e677468206044820152670dad2e6dac2e8c6d60c31b60648201526084016103ce565b6001600160a01b0384166109f15760405162461bcd60e51b81526004016103ce906116c7565b3360005b8451811015610ad8576000858281518110610a1257610a126116b1565b602002602001015190506000858381518110610a3057610a306116b1565b602090810291909101810151600084815280835260408082206001600160a01b038e168352909352919091205490915081811015610a805760405162461bcd60e51b81526004016103ce9061170c565b6000838152602081815260408083206001600160a01b038e8116855292528083208585039055908b16825281208054849290610abd908490611650565b9250508190555050505080610ad190611637565b90506109f5565b50846001600160a01b0316866001600160a01b0316826001600160a01b03167f4a39dc06d4c0dbc64b70af90fd698a233a518aa5d07e595d983b8c0526c8f7fb8787604051610b28929190611756565b60405180910390a4610b3e818787878787610fae565b505050505050565b6003546001600160a01b0316331461077c5760405162461bcd60e51b815260206004820181905260248201527f4f776e61626c653a2063616c6c6572206973206e6f7420746865206f776e657260448201526064016103ce565b600261079682826117cf565b600380546001600160a01b038381166001600160a01b0319831681179093556040519116919082907f8be0079c531659141344cd1fd0a4f28419497f9722a3daafe3b4186f6b6457e090600090a35050565b816001600160a01b0316836001600160a01b031603610c715760405162461bcd60e51b815260206004820152602960248201527f455243313135353a2073657474696e6720617070726f76616c20737461747573604482015268103337b91039b2b63360b91b60648201526084016103ce565b6001600160a01b03838116600081815260016020908152604080832094871680845294825291829020805460ff191686151590811790915591519182527f17307eab39ab6107e8899845ad3d59bd9653f200f220920489ca2b5937696c31910160405180910390a3505050565b6001600160a01b038416610d045760405162461bcd60e51b81526004016103ce906116c7565b336000610d1085610e08565b90506000610d1d85610e08565b90506000868152602081815260408083206001600160a01b038c16845290915290205485811015610d605760405162461bcd60e51b81526004016103ce9061170c565b6000878152602081815260408083206001600160a01b038d8116855292528083208985039055908a16825281208054889290610d9d908490611650565b909155505060408051888152602081018890526001600160a01b03808b16928c821692918816917fc3d58168c5ae7397731d063d5bbf3d657854427343f4c083240f7aacaa2d0f62910160405180910390a4610dfd848a8a8a8a8a610e53565b505050505050505050565b60408051600180825281830190925260609160009190602080830190803683370190505090508281600081518110610e4257610e426116b1565b602090810291909101015292915050565b6001600160a01b0384163b15610b3e5760405163f23a6e6160e01b81526001600160a01b0385169063f23a6e6190610e97908990899088908890889060040161188f565b6020604051808303816000875af1925050508015610ed2575060408051601f3d908101601f19168201909252610ecf918101906118d4565b60015b610f7e57610ede6118f1565b806308c379a003610f175750610ef261190d565b80610efd5750610f19565b8060405162461bcd60e51b81526004016103ce919061112f565b505b60405162461bcd60e51b815260206004820152603460248201527f455243313135353a207472616e7366657220746f206e6f6e2d455243313135356044820152732932b1b2b4bb32b91034b6b83632b6b2b73a32b960611b60648201526084016103ce565b6001600160e01b0319811663f23a6e6160e01b146109605760405162461bcd60e51b81526004016103ce90611997565b6001600160a01b0384163b15610b3e5760405163bc197c8160e01b81526001600160a01b0385169063bc197c8190610ff290899089908890889088906004016119df565b6020604051808303816000875af192505050801561102d575060408051601f3d908101601f1916820190925261102a918101906118d4565b60015b61103957610ede6118f1565b6001600160e01b0319811663bc197c8160e01b146109605760405162461bcd60e51b81526004016103ce90611997565b80356001600160a01b038116811461108057600080fd5b919050565b6000806040838503121561109857600080fd5b6110a183611069565b946020939093013593505050565b6001600160e01b03198116811461076757600080fd5b6000602082840312156110d757600080fd5b81356110e2816110af565b9392505050565b6000815180845260005b8181101561110f576020818501810151868301820152016110f3565b506000602082860101526020601f19601f83011685010191505092915050565b6020815260006110e260208301846110e9565b60006020828403121561115457600080fd5b5035919050565b60008060006060848603121561117057600080fd5b61117984611069565b95602085013595506040909401359392505050565b634e487b7160e01b600052604160045260246000fd5b601f8201601f1916810167ffffffffffffffff811182821017156111ca576111ca61118e565b6040525050565b600067ffffffffffffffff8211156111eb576111eb61118e565b5060051b60200190565b600082601f83011261120657600080fd5b81356020611213826111d1565b60405161122082826111a4565b83815260059390931b850182019282810191508684111561124057600080fd5b8286015b8481101561125b5780358352918301918301611244565b509695505050505050565b600067ffffffffffffffff8311156112805761128061118e565b604051611297601f8501601f1916602001826111a4565b8091508381528484840111156112ac57600080fd5b83836020830137600060208583010152509392505050565b600082601f8301126112d557600080fd5b6110e283833560208501611266565b600080600080600060a086880312156112fc57600080fd5b61130586611069565b945061131360208701611069565b9350604086013567ffffffffffffffff8082111561133057600080fd5b61133c89838a016111f5565b9450606088013591508082111561135257600080fd5b61135e89838a016111f5565b9350608088013591508082111561137457600080fd5b50611381888289016112c4565b9150509295509295909350565b600080604083850312156113a157600080fd5b823567ffffffffffffffff808211156113b957600080fd5b818501915085601f8301126113cd57600080fd5b813560206113da826111d1565b6040516113e782826111a4565b83815260059390931b850182019282810191508984111561140757600080fd5b948201945b8386101561142c5761141d86611069565b8252948201949082019061140c565b9650508601359250508082111561144257600080fd5b5061144f858286016111f5565b9150509250929050565b600081518084526020808501945080840160005b838110156114895781518752958201959082019060010161146d565b509495945050505050565b6020815260006110e26020830184611459565b6000602082840312156114b957600080fd5b813567ffffffffffffffff8111156114d057600080fd5b8201601f810184136114e157600080fd5b6114f084823560208401611266565b949350505050565b6000806040838503121561150b57600080fd5b61151483611069565b91506020830135801515811461152957600080fd5b809150509250929050565b6000806040838503121561154757600080fd5b61155083611069565b915061155e60208401611069565b90509250929050565b600080600080600060a0868803121561157f57600080fd5b61158886611069565b945061159660208701611069565b93506040860135925060608601359150608086013567ffffffffffffffff8111156115c057600080fd5b611381888289016112c4565b6000602082840312156115de57600080fd5b6110e282611069565b600181811c908216806115fb57607f821691505b60208210810361161b57634e487b7160e01b600052602260045260246000fd5b50919050565b634e487b7160e01b600052601160045260246000fd5b60006001820161164957611649611621565b5060010190565b808201808211156103fa576103fa611621565b6020808252602e908201527f455243313135353a2063616c6c6572206973206e6f7420746f6b656e206f776e60408201526d195c881bdc88185c1c1c9bdd995960921b606082015260800190565b634e487b7160e01b600052603260045260246000fd5b60208082526025908201527f455243313135353a207472616e7366657220746f20746865207a65726f206164604082015264647265737360d81b606082015260800190565b6020808252602a908201527f455243313135353a20696e73756666696369656e742062616c616e636520666f60408201526939103a3930b739b332b960b11b606082015260800190565b6040815260006117696040830185611459565b828103602084015261177b8185611459565b95945050505050565b601f8211156117ca57600081815260208120601f850160051c810160208610156117ab5750805b601f850160051c820191505b81811015610b3e578281556001016117b7565b505050565b815167ffffffffffffffff8111156117e9576117e961118e565b6117fd816117f784546115e7565b84611784565b602080601f831160018114611832576000841561181a5750858301515b600019600386901b1c1916600185901b178555610b3e565b600085815260208120601f198616915b8281101561186157888601518255948401946001909101908401611842565b508582101561187f5787850151600019600388901b60f8161c191681555b5050505050600190811b01905550565b6001600160a01b03868116825285166020820152604081018490526060810183905260a0608082018190526000906118c9908301846110e9565b979650505050505050565b6000602082840312156118e657600080fd5b81516110e2816110af565b600060033d111561190a5760046000803e5060005160e01c5b90565b600060443d101561191b5790565b6040516003193d81016004833e81513d67ffffffffffffffff816024840111818411171561194b57505050505090565b82850191508151818111156119635750505050505090565b843d870101602082850101111561197d5750505050505090565b61198c602082860101876111a4565b509095945050505050565b60208082526028908201527f455243313135353a204552433131353552656365697665722072656a656374656040820152676420746f6b656e7360c01b606082015260800190565b6001600160a01b0386811682528516602082015260a060408201819052600090611a0b90830186611459565b8281036060840152611a1d8186611459565b90508281036080840152611a3181856110e9565b9897505050505050505056fea2646970667358221220a4d8f2abc320b2cb5fc11ff9c38e1cbc2d97a4c4b7e90ce14e5b9f348d0e0e4c64736f6c63430008120033",
    "linkReferences": {}
  },
  "methodIdentifiers": {
    "balanceOf(address,uint256)": "00fdd58e",
    "balanceOfBatch(address[],uint256[])": "4e1273f4",
    "isApprovedForAll(address,address)": "e985e9c5",
    "mint(address,uint256,uint256)": "156e29f6",
    "name()": "06fdde03",
    "owner()": "8da5cb5b",
    "renounceOwnership()": "715018a6",
    "safeBatchTransferFrom(address,address,uint256[],uint256[],bytes)": "2eb2c2d6",
    "safeTransferFrom(address,address,uint256,uint256,bytes)": "f242432a",
    "setApprovalForAll(address,bool)": "a22cb465",
    "setBaseURI(string)": "55f804b3",
    "supportsInterface(bytes4)": "01ffc9a7",
    "symbol()": "95d89b41",
    "totalBalances(uint256)": "ed7aae2b",
    "totalSupply()": "18160ddd",
    "transferOwnership(address)": "f2fde38b",
    "uri(uint256)": "0e89341c"
  },
  "id": 64
}