{
  "abi": [
    {
      "type": "constructor",
      "inputs": [
        {
          "name": "name_",
          "type": "string",
          "internalType": "string"
        },
        {
          "name": "symbol_",
          "type": "string",
          "internalType": "string"
        },
        {
          "name": "initialBaseURI_",
          "type": "string",
          "internalType": "string"
        }
      ],
      "stateMutability": "nonpayable"
    },
    {
      "type": "function",
      "name": "balanceOf",
      "inputs": [
        {
          "name": "account",
          "type": "address",
          "internalType": "address"
        },
        {
          "name": "id",
          "type": "uint256",
          "internalType": "uint256"
        }
      ],
      "outputs": [
        {
          "name": "",
          "type": "uint256",
          "internalType": "uint256"
        }
      ],
      "stateMutability": "view"
    },
    {
      "type": "function",
      "name": "balanceOfBatch",
      "inputs": [
        {
          "name": "accounts",
          "type": "address[]",
          "internalType": "address[]"
        },
        {
          "name": "ids",
          "type": "uint256[]",
          "internalType": "uint256[]"
        }
      ],
      "outputs": [
        {
          "name": "",
          "type": "uint256[]",
          "internalType": "uint256[]"
        }
      ],
      "stateMutability": "view"
    },
    {
      "type": "function",
      "name": "isApprovedForAll",
      "inputs": [
        {
          "name": "account",
          "type": "address",
          "internalType": "address"
        },
        {
          "name": "operator",
          "type": "address",
          "internalType": "address"
        }
      ],
      "outputs": [
        {
          "name": "",
          "type": "bool",
          "internalType": "bool"
        }
      ],
      "stateMutability": "view"
    },
    {
      "type": "function",
      "name": "mint",
      "inputs": [
        {
          "name": "recipient",
          "type": "address",
          "internalType": "address"
        },
        {
          "name": "tokenId",
          "type": "uint256",
          "internalType": "uint256"
        },
        {
          "name": "quantity",
          "type": "uint256",
          "internalType": "uint256"
        }
      ],
      "outputs": [],
      "stateMutability": "payable"
    },
    {
      "type": "function",
      "name": "name",
      "inputs": [],
      "outputs": [
        {
          "name": "",
          "type": "string",
          "internalType": "string"
        }
      ],
      "stateMutability": "view"
    },
    {
      "type": "function",
      "name": "owner",
      "inputs": [],
      "outputs": [
        {
          "name": "",
          "type": "address",
          "internalType": "address"
        }
      ],
      "stateMutability": "view"
    },
    {
      "type": "function",
      "name": "renounceOwnership",
      "inputs": [],
      "outputs": [],
      "stateMutability": "nonpayable"
    },
    {
      "type": "function",
      "name": "safeBatchTransferFrom",
      "inputs": [
        {
          "name": "from",
          "type": "address",
          "internalType": "address"
        },
        {
          "name": "to",
          "type": "address",
          "internalType": "address"
        },
        {
          "name": "ids",
          "type": "uint256[]",
          "internalType": "uint256[]"
        },
        {
          "name": "amounts",
          "type": "uint256[]",
          "internalType": "uint256[]"
        },
        {
          "name": "data",
          "type": "bytes",
          "internalType": "bytes"
        }
      ],
      "outputs": [],
      "stateMutability": "nonpayable"
    },
    {
      "type": "function",
      "name": "safeTransferFrom",
      "inputs": [
        {
          "name": "from",
          "type": "address",
          "internalType": "address"
        },
        {
          "name": "to",
          "type": "address",
          "internalType": "address"
        },
        {
          "name": "id",
          "type": "uint256",
          "internalType": "uint256"
        },
        {
          "name": "amount",
          "type": "uint256",
          "internalType": "uint256"
        },
        {
          "name": "data",
          "type": "bytes",
          "internalType": "bytes"
        }
      ],
      "outputs": [],
      "stateMutability": "nonpayable"
    },
    {
      "type": "function",
      "name": "setApprovalForAll",
      "inputs": [
        {
          "name": "operator",
          "type": "address",
          "internalType": "address"
        },
        {
          "name": "approved",
          "type": "bool",
          "internalType": "bool"
        }
      ],
      "outputs": [],
      "stateMutability": "nonpayable"
    },
    {
      "type": "function",
      "name": "setBaseURI",
      "inputs": [
        {
          "name": "newBaseURI",
          "type": "string",
          "internalType": "string"
        }
      ],
      "outputs": [],
      "stateMutability": "nonpayable"
    },
    {
      "type": "function",
      "name": "supportsInterface",
      "inputs": [
        {
          "name": "interfaceId",
          "type": "bytes4",
          "internalType": "bytes4"
        }
      ],
      "outputs": [
        {
          "name": "",
          "type": "bool",
          "internalType": "bool"
        }
      ],
      "stateMutability": "view"
    },
    {
      "type": "function",
      "name": "symbol",
      "inputs": [],
      "outputs": [
        {
          "name": "",
          "type": "string",
          "internalType": "string"
        }
      ],
      "stateMutability": "view"
    },
    {
      "type": "function",
      "name": "tokenURI",
      "inputs": [
        {
          "name": "tokenId",
          "type": "uint256",
          "internalType": "uint256"
        }
      ],
      "outputs": [
        {
          "name": "",
          "type": "string",
          "internalType": "string"
        }
      ],
      "stateMutability": "view"
    },
    {
      "type": "function",
      "name": "totalBalances",
      "inputs": [
        {
          "name": "",
          "type": "uint256",
          "internalType": "uint256"
        }
      ],
      "outputs": [
        {
          "name": "",
          "type": "uint256",
          "internalType": "uint256"
        }
      ],
      "stateMutability": "view"
    },
    {
      "type": "function",
      "name": "totalSupply",
      "inputs": [],
      "outputs": [
        {
          "name": "",
          "type": "uint256",
          "internalType": "uint256"
        }
      ],
      "stateMutability": "view"
    },
    {
      "type": "function",
      "name": "transferOwnership",
      "inputs": [
        {
          "name": "newOwner",
          "type": "address",
          "internalType": "address"
        }
      ],
      "outputs": [],
      "stateMutability": "nonpayable"
    },
    {
      "type": "function",
      "name": "uri",
      "inputs": [
        {
          "name": "",
          "type": "uint256",
          "internalType": "uint256"
        }
      ],
      "outputs": [
        {
          "name": "",
          "type": "string",
          "internalType": "string"
        }
      ],
      "stateMutability": "view"
    },
    {
      "type": "event",
      "name": "ApprovalForAll",
      "inputs": [
        {
          "name": "account",
          "type": "address",
          "indexed": true,
          "internalType": "address"
        },
        {
          "name": "operator",
          "type": "address",
          "indexed": true,
          "internalType": "address"
        },
        {
          "name": "approved",
          "type": "bool",
          "indexed": false,
          "internalType": "bool"
        }
      ],
      "anonymous": false
    },
    {
      "type": "event",
      "name": "OwnershipTransferred",
      "inputs": [
        {
          "name": "previousOwner",
          "type": "address",
          "indexed": true,
          "internalType": "address"
        },
        {
          "name": "newOwner",
          "type": "address",
          "indexed": true,
          "internalType": "address"
        }
      ],
      "anonymous": false
    },
    {
      "type": "event",
      "name": "TransferBatch",
      "inputs": [
        {
          "name": "operator",
          "type": "address",
          "indexed": true,
          "internalType": "address"
        },
        {
          "name": "from",
          "type": "address",
          "indexed": true,
          "internalType": "address"
        },
        {
          "name": "to",
          "type": "address",
          "indexed": true,
          "internalType": "address"
        },
        {
          "name": "ids",
          "type": "uint256[]",
          "indexed": false,
          "internalType": "uint256[]"
        },
        {
          "name": "values",
          "type": "uint256[]",
          "indexed": false,
          "internalType": "uint256[]"
        }
      ],
      "anonymous": false
    },
    {
      "type": "event",
      "name": "TransferSingle",
      "inputs": [
        {
          "name": "operator",
          "type": "address",
          "indexed": true,
          "internalType": "address"
        },
        {
          "name": "from",
          "type": "address",
          "indexed": true,
          "internalType": "address"
        },
        {
          "name": "to",
          "type": "address",
          "indexed": true,
          "internalType": "address"
        },
        {
          "name": "id",
          "type": "uint256",
          "indexed": false,
          "internalType": "uint256"
        },
        {
          "name": "value",
          "type": "uint256",
          "indexed": false,
          "internalType": "uint256"
        }
      ],
      "anonymous": false
    },
    {
      "type": "event",
      "name": "URI",
      "inputs": [
        {
          "name": "value",
          "type": "string",
          "indexed": false,
          "internalType": "string"
        },
        {
          "name": "id",
          "type": "uint256",
          "indexed": true,
          "internalType": "uint256"
        }
      ],
      "anonymous": false
    }
  ],
  "bytecode": {
    "object": "0x60806040523480156200001157600080fd5b506040516200206d3803806200206d83398101604081905262000034916200019c565b80620000408162000073565b506200004c3362000085565b60046200005a8482620002bc565b506005620000698382620002bc565b5050505062000388565b6002620000818282620002bc565b5050565b600380546001600160a01b038381166001600160a01b0319831681179093556040519116919082907f8be0079c531659141344cd1fd0a4f28419497f9722a3daafe3b4186f6b6457e090600090a35050565b634e487b7160e01b600052604160045260246000fd5b600082601f830112620000ff57600080fd5b81516001600160401b03808211156200011c576200011c620000d7565b604051601f8301601f19908116603f01168101908282118183101715620001475762000147620000d7565b816040528381526020925086838588010111156200016457600080fd5b600091505b8382101562000188578582018301518183018401529082019062000169565b600093810190920192909252949350505050565b600080600060608486031215620001b257600080fd5b83516001600160401b0380821115620001ca57600080fd5b620001d887838801620000ed565b94506020860151915080821115620001ef57600080fd5b620001fd87838801620000ed565b935060408601519150808211156200021457600080fd5b506200022386828701620000ed565b9150509250925092565b600181811c908216806200024257607f821691505b6020821081036200026357634e487b7160e01b600052602260045260246000fd5b50919050565b601f821115620002b757600081815260208120601f850160051c81016020861015620002925750805b601f850160051c820191505b81811015620002b3578281556001016200029e565b5050505b505050565b81516001600160401b03811115620002d857620002d8620000d7565b620002f081620002e984546200022d565b8462000269565b602080601f8311600181146200032857600084156200030f5750858301515b600019600386901b1c1916600185901b178555620002b3565b600085815260208120601f198616915b82811015620003595788860151825594840194600190910190840162000338565b5085821015620003785787850151600019600388901b60f8161c191681555b5050505050600190811b01905550565b611cd580620003986000396000f3fe6080604052600436106101085760003560e01c8063715018a611610095578063c87b56dd11610064578063c87b56dd146102bc578063e985e9c5146102dc578063ed7aae2b14610325578063f242432a14610352578063f2fde38b1461037257600080fd5b8063715018a61461024a5780638da5cb5b1461025f57806395d89b4114610287578063a22cb4651461029c57600080fd5b8063156e29f6116100dc578063156e29f6146101b257806318160ddd146101c75780632eb2c2d6146101dd5780634e1273f4146101fd57806355f804b31461022a57600080fd5b8062fdd58e1461010d57806301ffc9a71461014057806306fdde03146101705780630e89341c14610192575b600080fd5b34801561011957600080fd5b5061012d6101283660046112ae565b610392565b6040519081526020015b60405180910390f35b34801561014c57600080fd5b5061016061015b3660046112ee565b61042b565b6040519015158152602001610137565b34801561017c57600080fd5b5061018561047b565b6040516101379190611362565b34801561019e57600080fd5b506101856101ad366004611375565b610509565b6101c56101c036600461138e565b61059d565b005b3480156101d357600080fd5b5061012d60065481565b3480156101e957600080fd5b506101c56101f8366004611517565b61060b565b34801561020957600080fd5b5061021d6102183660046115c1565b610657565b60405161013791906116c7565b34801561023657600080fd5b506101c56102453660046116da565b610781565b34801561025657600080fd5b506101c5610795565b34801561026b57600080fd5b506003546040516001600160a01b039091168152602001610137565b34801561029357600080fd5b506101856107a9565b3480156102a857600080fd5b506101c56102b736600461172b565b6107b6565b3480156102c857600080fd5b506101856102d7366004611375565b6107c5565b3480156102e857600080fd5b506101606102f7366004611767565b6001600160a01b03918216600090815260016020908152604080832093909416825291909152205460ff1690565b34801561033157600080fd5b5061012d610340366004611375565b60076020526000908152604090205481565b34801561035e57600080fd5b506101c561036d36600461179a565b610858565b34801561037e57600080fd5b506101c561038d3660046117ff565b61089d565b60006001600160a01b0383166104025760405162461bcd60e51b815260206004820152602a60248201527f455243313135353a2061646472657373207a65726f206973206e6f742061207660448201526930b634b21037bbb732b960b11b60648201526084015b60405180910390fd5b506000818152602081815260408083206001600160a01b03861684529091529020545b92915050565b60006001600160e01b03198216636cdb3d1360e11b148061045c57506001600160e01b031982166303a24d0760e21b145b8061042557506301ffc9a760e01b6001600160e01b0319831614610425565b600480546104889061181a565b80601f01602080910402602001604051908101604052809291908181526020018280546104b49061181a565b80156105015780601f106104d657610100808354040283529160200191610501565b820191906000526020600020905b8154815290600101906020018083116104e457829003601f168201915b505050505081565b6060600280546105189061181a565b80601f01602080910402602001604051908101604052809291908181526020018280546105449061181a565b80156105915780601f1061056657610100808354040283529160200191610591565b820191906000526020600020905b81548152906001019060200180831161057457829003601f168201915b50505050509050919050565b60008281526007602052604081205490036105c857600680549060006105c28361186a565b91905055505b6105e383838360405180602001604052806000815250610913565b60008281526007602052604081208054839290610601908490611883565b9091555050505050565b6001600160a01b038516331480610627575061062785336102f7565b6106435760405162461bcd60e51b81526004016103f990611896565b6106508585858585610a27565b5050505050565b606081518351146106bc5760405162461bcd60e51b815260206004820152602960248201527f455243313135353a206163636f756e747320616e6420696473206c656e677468604482015268040dad2e6dac2e8c6d60bb1b60648201526084016103f9565b6000835167ffffffffffffffff8111156106d8576106d86113c1565b604051908082528060200260200182016040528015610701578160200160208202803683370190505b50905060005b84518110156107795761074c858281518110610725576107256118e4565b602002602001015185838151811061073f5761073f6118e4565b6020026020010151610392565b82828151811061075e5761075e6118e4565b60209081029190910101526107728161186a565b9050610707565b509392505050565b610789610c04565b61079281610c5e565b50565b61079d610c04565b6107a76000610c6a565b565b600580546104889061181a565b6107c1338383610cbc565b5050565b600081815260076020526040812054606091036108195760405162461bcd60e51b81526020600482015260126024820152712737b716b2bc34b9ba32b73a103a37b5b2b760711b60448201526064016103f9565b600061082483610509565b90508061083084610d9c565b6040516020016108419291906118fa565b604051602081830303815290604052915050919050565b6001600160a01b038516331480610874575061087485336102f7565b6108905760405162461bcd60e51b81526004016103f990611896565b6106508585858585610e2f565b6108a5610c04565b6001600160a01b03811661090a5760405162461bcd60e51b815260206004820152602660248201527f4f776e61626c653a206e6577206f776e657220697320746865207a65726f206160448201526564647265737360d01b60648201526084016103f9565b61079281610c6a565b6001600160a01b0384166109735760405162461bcd60e51b815260206004820152602160248201527f455243313135353a206d696e7420746f20746865207a65726f206164647265736044820152607360f81b60648201526084016103f9565b33600061097f85610f59565b9050600061098c85610f59565b90506000868152602081815260408083206001600160a01b038b168452909152812080548792906109be908490611883565b909155505060408051878152602081018790526001600160a01b03808a1692600092918716917fc3d58168c5ae7397731d063d5bbf3d657854427343f4c083240f7aacaa2d0f62910160405180910390a4610a1e83600089898989610fa4565b50505050505050565b8151835114610a895760405162461bcd60e51b815260206004820152602860248201527f455243313135353a2069647320616e6420616d6f756e7473206c656e677468206044820152670dad2e6dac2e8c6d60c31b60648201526084016103f9565b6001600160a01b038416610aaf5760405162461bcd60e51b81526004016103f990611929565b3360005b8451811015610b96576000858281518110610ad057610ad06118e4565b602002602001015190506000858381518110610aee57610aee6118e4565b602090810291909101810151600084815280835260408082206001600160a01b038e168352909352919091205490915081811015610b3e5760405162461bcd60e51b81526004016103f99061196e565b6000838152602081815260408083206001600160a01b038e8116855292528083208585039055908b16825281208054849290610b7b908490611883565b9250508190555050505080610b8f9061186a565b9050610ab3565b50846001600160a01b0316866001600160a01b0316826001600160a01b03167f4a39dc06d4c0dbc64b70af90fd698a233a518aa5d07e595d983b8c0526c8f7fb8787604051610be69291906119b8565b60405180910390a4610bfc8187878787876110ff565b505050505050565b6003546001600160a01b031633146107a75760405162461bcd60e51b815260206004820181905260248201527f4f776e61626c653a2063616c6c6572206973206e6f7420746865206f776e657260448201526064016103f9565b60026107c18282611a31565b600380546001600160a01b038381166001600160a01b0319831681179093556040519116919082907f8be0079c531659141344cd1fd0a4f28419497f9722a3daafe3b4186f6b6457e090600090a35050565b816001600160a01b0316836001600160a01b031603610d2f5760405162461bcd60e51b815260206004820152602960248201527f455243313135353a2073657474696e6720617070726f76616c20737461747573604482015268103337b91039b2b63360b91b60648201526084016103f9565b6001600160a01b03838116600081815260016020908152604080832094871680845294825291829020805460ff191686151590811790915591519182527f17307eab39ab6107e8899845ad3d59bd9653f200f220920489ca2b5937696c31910160405180910390a3505050565b60606000610da9836111ba565b600101905060008167ffffffffffffffff811115610dc957610dc96113c1565b6040519080825280601f01601f191660200182016040528015610df3576020820181803683370190505b5090508181016020015b600019016f181899199a1a9b1b9c1cb0b131b232b360811b600a86061a8153600a8504945084610dfd57509392505050565b6001600160a01b038416610e555760405162461bcd60e51b81526004016103f990611929565b336000610e6185610f59565b90506000610e6e85610f59565b90506000868152602081815260408083206001600160a01b038c16845290915290205485811015610eb15760405162461bcd60e51b81526004016103f99061196e565b6000878152602081815260408083206001600160a01b038d8116855292528083208985039055908a16825281208054889290610eee908490611883565b909155505060408051888152602081018890526001600160a01b03808b16928c821692918816917fc3d58168c5ae7397731d063d5bbf3d657854427343f4c083240f7aacaa2d0f62910160405180910390a4610f4e848a8a8a8a8a610fa4565b505050505050505050565b60408051600180825281830190925260609160009190602080830190803683370190505090508281600081518110610f9357610f936118e4565b602090810291909101015292915050565b6001600160a01b0384163b15610bfc5760405163f23a6e6160e01b81526001600160a01b0385169063f23a6e6190610fe89089908990889088908890600401611af1565b6020604051808303816000875af1925050508015611023575060408051601f3d908101601f1916820190925261102091810190611b36565b60015b6110cf5761102f611b53565b806308c379a0036110685750611043611b6f565b8061104e575061106a565b8060405162461bcd60e51b81526004016103f99190611362565b505b60405162461bcd60e51b815260206004820152603460248201527f455243313135353a207472616e7366657220746f206e6f6e2d455243313135356044820152732932b1b2b4bb32b91034b6b83632b6b2b73a32b960611b60648201526084016103f9565b6001600160e01b0319811663f23a6e6160e01b14610a1e5760405162461bcd60e51b81526004016103f990611bf9565b6001600160a01b0384163b15610bfc5760405163bc197c8160e01b81526001600160a01b0385169063bc197c81906111439089908990889088908890600401611c41565b6020604051808303816000875af192505050801561117e575060408051601f3d908101601f1916820190925261117b91810190611b36565b60015b61118a5761102f611b53565b6001600160e01b0319811663bc197c8160e01b14610a1e5760405162461bcd60e51b81526004016103f990611bf9565b60008072184f03e93ff9f4daa797ed6e38ed64bf6a1f0160401b83106111f95772184f03e93ff9f4daa797ed6e38ed64bf6a1f0160401b830492506040015b6d04ee2d6d415b85acef81000000008310611225576d04ee2d6d415b85acef8100000000830492506020015b662386f26fc10000831061124357662386f26fc10000830492506010015b6305f5e100831061125b576305f5e100830492506008015b612710831061126f57612710830492506004015b60648310611281576064830492506002015b600a83106104255760010192915050565b80356001600160a01b03811681146112a957600080fd5b919050565b600080604083850312156112c157600080fd5b6112ca83611292565b946020939093013593505050565b6001600160e01b03198116811461079257600080fd5b60006020828403121561130057600080fd5b813561130b816112d8565b9392505050565b60005b8381101561132d578181015183820152602001611315565b50506000910152565b6000815180845261134e816020860160208601611312565b601f01601f19169290920160200192915050565b60208152600061130b6020830184611336565b60006020828403121561138757600080fd5b5035919050565b6000806000606084860312156113a357600080fd5b6113ac84611292565b95602085013595506040909401359392505050565b634e487b7160e01b600052604160045260246000fd5b601f8201601f1916810167ffffffffffffffff811182821017156113fd576113fd6113c1565b6040525050565b600067ffffffffffffffff82111561141e5761141e6113c1565b5060051b60200190565b600082601f83011261143957600080fd5b8135602061144682611404565b60405161145382826113d7565b83815260059390931b850182019282810191508684111561147357600080fd5b8286015b8481101561148e5780358352918301918301611477565b509695505050505050565b600067ffffffffffffffff8311156114b3576114b36113c1565b6040516114ca601f8501601f1916602001826113d7565b8091508381528484840111156114df57600080fd5b83836020830137600060208583010152509392505050565b600082601f83011261150857600080fd5b61130b83833560208501611499565b600080600080600060a0868803121561152f57600080fd5b61153886611292565b945061154660208701611292565b9350604086013567ffffffffffffffff8082111561156357600080fd5b61156f89838a01611428565b9450606088013591508082111561158557600080fd5b61159189838a01611428565b935060808801359150808211156115a757600080fd5b506115b4888289016114f7565b9150509295509295909350565b600080604083850312156115d457600080fd5b823567ffffffffffffffff808211156115ec57600080fd5b818501915085601f83011261160057600080fd5b8135602061160d82611404565b60405161161a82826113d7565b83815260059390931b850182019282810191508984111561163a57600080fd5b948201945b8386101561165f5761165086611292565b8252948201949082019061163f565b9650508601359250508082111561167557600080fd5b5061168285828601611428565b9150509250929050565b600081518084526020808501945080840160005b838110156116bc578151875295820195908201906001016116a0565b509495945050505050565b60208152600061130b602083018461168c565b6000602082840312156116ec57600080fd5b813567ffffffffffffffff81111561170357600080fd5b8201601f8101841361171457600080fd5b61172384823560208401611499565b949350505050565b6000806040838503121561173e57600080fd5b61174783611292565b91506020830135801515811461175c57600080fd5b809150509250929050565b6000806040838503121561177a57600080fd5b61178383611292565b915061179160208401611292565b90509250929050565b600080600080600060a086880312156117b257600080fd5b6117bb86611292565b94506117c960208701611292565b93506040860135925060608601359150608086013567ffffffffffffffff8111156117f357600080fd5b6115b4888289016114f7565b60006020828403121561181157600080fd5b61130b82611292565b600181811c9082168061182e57607f821691505b60208210810361184e57634e487b7160e01b600052602260045260246000fd5b50919050565b634e487b7160e01b600052601160045260246000fd5b60006001820161187c5761187c611854565b5060010190565b8082018082111561042557610425611854565b6020808252602e908201527f455243313135353a2063616c6c6572206973206e6f7420746f6b656e206f776e60408201526d195c881bdc88185c1c1c9bdd995960921b606082015260800190565b634e487b7160e01b600052603260045260246000fd5b6000835161190c818460208801611312565b835190830190611920818360208801611312565b01949350505050565b60208082526025908201527f455243313135353a207472616e7366657220746f20746865207a65726f206164604082015264647265737360d81b606082015260800190565b6020808252602a908201527f455243313135353a20696e73756666696369656e742062616c616e636520666f60408201526939103a3930b739b332b960b11b606082015260800190565b6040815260006119cb604083018561168c565b82810360208401526119dd818561168c565b95945050505050565b601f821115611a2c57600081815260208120601f850160051c81016020861015611a0d5750805b601f850160051c820191505b81811015610bfc57828155600101611a19565b505050565b815167ffffffffffffffff811115611a4b57611a4b6113c1565b611a5f81611a59845461181a565b846119e6565b602080601f831160018114611a945760008415611a7c5750858301515b600019600386901b1c1916600185901b178555610bfc565b600085815260208120601f198616915b82811015611ac357888601518255948401946001909101908401611aa4565b5085821015611ae15787850151600019600388901b60f8161c191681555b5050505050600190811b01905550565b6001600160a01b03868116825285166020820152604081018490526060810183905260a060808201819052600090611b2b90830184611336565b979650505050505050565b600060208284031215611b4857600080fd5b815161130b816112d8565b600060033d1115611b6c5760046000803e5060005160e01c5b90565b600060443d1015611b7d5790565b6040516003193d81016004833e81513d67ffffffffffffffff8160248401118184111715611bad57505050505090565b8285019150815181811115611bc55750505050505090565b843d8701016020828501011115611bdf5750505050505090565b611bee602082860101876113d7565b509095945050505050565b60208082526028908201527f455243313135353a204552433131353552656365697665722072656a656374656040820152676420746f6b656e7360c01b606082015260800190565b6001600160a01b0386811682528516602082015260a060408201819052600090611c6d9083018661168c565b8281036060840152611c7f818661168c565b90508281036080840152611c938185611336565b9897505050505050505056fea26469706673582212209bd1e084c9f8553f43874f373b086c2c0b218076557748df2064d2bc4343441464736f6c63430008120033",
    "linkReferences": {}
  },
  "methodIdentifiers": {
    "balanceOf(address,uint256)": "00fdd58e",
    "balanceOfBatch(address[],uint256[])": "4e1273f4",
    "isApprovedForAll(address,address)": "e985e9c5",
    "mint(address,uint256,uint256)": "156e29f6",
    "name()": "06fdde03",
    "owner()": "8da5cb5b",
    "renounceOwnership()": "715018a6",
    "safeBatchTransferFrom(address,address,uint256[],uint256[],bytes)": "2eb2c2d6",
    "safeTransferFrom(address,address,uint256,uint256,bytes)": "f242432a",
    "setApprovalForAll(address,bool)": "a22cb465",
    "setBaseURI(string)": "55f804b3",
    "supportsInterface(bytes4)": "01ffc9a7",
    "symbol()": "95d89b41",
    "tokenURI(uint256)": "c87b56dd",
    "totalBalances(uint256)": "ed7aae2b",
    "totalSupply()": "18160ddd",
    "transferOwnership(address)": "f2fde38b",
    "uri(uint256)": "0e89341c"
  },
  "id": 63
}