{
  "abi": [
    {
      "type": "constructor",
      "inputs": [
        {
          "name": "initialBaseURI",
          "type": "string",
          "internalType": "string"
        }
      ],
      "stateMutability": "nonpayable"
    },
    {
      "type": "function",
      "name": "balanceOf",
      "inputs": [
        {
          "name": "account",
          "type": "address",
          "internalType": "address"
        },
        {
          "name": "id",
          "type": "uint256",
          "internalType": "uint256"
        }
      ],
      "outputs": [
        {
          "name": "",
          "type": "uint256",
          "internalType": "uint256"
        }
      ],
      "stateMutability": "view"
    },
    {
      "type": "function",
      "name": "balanceOfBatch",
      "inputs": [
        {
          "name": "accounts",
          "type": "address[]",
          "internalType": "address[]"
        },
        {
          "name": "ids",
          "type": "uint256[]",
          "internalType": "uint256[]"
        }
      ],
      "outputs": [
        {
          "name": "",
          "type": "uint256[]",
          "internalType": "uint256[]"
        }
      ],
      "stateMutability": "view"
    },
    {
      "type": "function",
      "name": "isApprovedForAll",
      "inputs": [
        {
          "name": "account",
          "type": "address",
          "internalType": "address"
        },
        {
          "name": "operator",
          "type": "address",
          "internalType": "address"
        }
      ],
      "outputs": [
        {
          "name": "",
          "type": "bool",
          "internalType": "bool"
        }
      ],
      "stateMutability": "view"
    },
    {
      "type": "function",
      "name": "mint",
      "inputs": [
        {
          "name": "recipient",
          "type": "address",
          "internalType": "address"
        },
        {
          "name": "tokenId",
          "type": "uint256",
          "internalType": "uint256"
        },
        {
          "name": "quantity",
          "type": "uint256",
          "internalType": "uint256"
        }
      ],
      "outputs": [],
      "stateMutability": "payable"
    },
    {
      "type": "function",
      "name": "owner",
      "inputs": [],
      "outputs": [
        {
          "name": "",
          "type": "address",
          "internalType": "address"
        }
      ],
      "stateMutability": "view"
    },
    {
      "type": "function",
      "name": "renounceOwnership",
      "inputs": [],
      "outputs": [],
      "stateMutability": "nonpayable"
    },
    {
      "type": "function",
      "name": "safeBatchTransferFrom",
      "inputs": [
        {
          "name": "from",
          "type": "address",
          "internalType": "address"
        },
        {
          "name": "to",
          "type": "address",
          "internalType": "address"
        },
        {
          "name": "ids",
          "type": "uint256[]",
          "internalType": "uint256[]"
        },
        {
          "name": "amounts",
          "type": "uint256[]",
          "internalType": "uint256[]"
        },
        {
          "name": "data",
          "type": "bytes",
          "internalType": "bytes"
        }
      ],
      "outputs": [],
      "stateMutability": "nonpayable"
    },
    {
      "type": "function",
      "name": "safeTransferFrom",
      "inputs": [
        {
          "name": "from",
          "type": "address",
          "internalType": "address"
        },
        {
          "name": "to",
          "type": "address",
          "internalType": "address"
        },
        {
          "name": "id",
          "type": "uint256",
          "internalType": "uint256"
        },
        {
          "name": "amount",
          "type": "uint256",
          "internalType": "uint256"
        },
        {
          "name": "data",
          "type": "bytes",
          "internalType": "bytes"
        }
      ],
      "outputs": [],
      "stateMutability": "nonpayable"
    },
    {
      "type": "function",
      "name": "setApprovalForAll",
      "inputs": [
        {
          "name": "operator",
          "type": "address",
          "internalType": "address"
        },
        {
          "name": "approved",
          "type": "bool",
          "internalType": "bool"
        }
      ],
      "outputs": [],
      "stateMutability": "nonpayable"
    },
    {
      "type": "function",
      "name": "setBaseURI",
      "inputs": [
        {
          "name": "newBaseURI",
          "type": "string",
          "internalType": "string"
        }
      ],
      "outputs": [],
      "stateMutability": "nonpayable"
    },
    {
      "type": "function",
      "name": "supportsInterface",
      "inputs": [
        {
          "name": "interfaceId",
          "type": "bytes4",
          "internalType": "bytes4"
        }
      ],
      "outputs": [
        {
          "name": "",
          "type": "bool",
          "internalType": "bool"
        }
      ],
      "stateMutability": "view"
    },
    {
      "type": "function",
      "name": "totalBalances",
      "inputs": [
        {
          "name": "",
          "type": "uint256",
          "internalType": "uint256"
        }
      ],
      "outputs": [
        {
          "name": "",
          "type": "uint256",
          "internalType": "uint256"
        }
      ],
      "stateMutability": "view"
    },
    {
      "type": "function",
      "name": "totalSupply",
      "inputs": [],
      "outputs": [
        {
          "name": "",
          "type": "uint256",
          "internalType": "uint256"
        }
      ],
      "stateMutability": "view"
    },
    {
      "type": "function",
      "name": "transferOwnership",
      "inputs": [
        {
          "name": "newOwner",
          "type": "address",
          "internalType": "address"
        }
      ],
      "outputs": [],
      "stateMutability": "nonpayable"
    },
    {
      "type": "function",
      "name": "uri",
      "inputs": [
        {
          "name": "",
          "type": "uint256",
          "internalType": "uint256"
        }
      ],
      "outputs": [
        {
          "name": "",
          "type": "string",
          "internalType": "string"
        }
      ],
      "stateMutability": "view"
    },
    {
      "type": "event",
      "name": "ApprovalForAll",
      "inputs": [
        {
          "name": "account",
          "type": "address",
          "indexed": true,
          "internalType": "address"
        },
        {
          "name": "operator",
          "type": "address",
          "indexed": true,
          "internalType": "address"
        },
        {
          "name": "approved",
          "type": "bool",
          "indexed": false,
          "internalType": "bool"
        }
      ],
      "anonymous": false
    },
    {
      "type": "event",
      "name": "OwnershipTransferred",
      "inputs": [
        {
          "name": "previousOwner",
          "type": "address",
          "indexed": true,
          "internalType": "address"
        },
        {
          "name": "newOwner",
          "type": "address",
          "indexed": true,
          "internalType": "address"
        }
      ],
      "anonymous": false
    },
    {
      "type": "event",
      "name": "TransferBatch",
      "inputs": [
        {
          "name": "operator",
          "type": "address",
          "indexed": true,
          "internalType": "address"
        },
        {
          "name": "from",
          "type": "address",
          "indexed": true,
          "internalType": "address"
        },
        {
          "name": "to",
          "type": "address",
          "indexed": true,
          "internalType": "address"
        },
        {
          "name": "ids",
          "type": "uint256[]",
          "indexed": false,
          "internalType": "uint256[]"
        },
        {
          "name": "values",
          "type": "uint256[]",
          "indexed": false,
          "internalType": "uint256[]"
        }
      ],
      "anonymous": false
    },
    {
      "type": "event",
      "name": "TransferSingle",
      "inputs": [
        {
          "name": "operator",
          "type": "address",
          "indexed": true,
          "internalType": "address"
        },
        {
          "name": "from",
          "type": "address",
          "indexed": true,
          "internalType": "address"
        },
        {
          "name": "to",
          "type": "address",
          "indexed": true,
          "internalType": "address"
        },
        {
          "name": "id",
          "type": "uint256",
          "indexed": false,
          "internalType": "uint256"
        },
        {
          "name": "value",
          "type": "uint256",
          "indexed": false,
          "internalType": "uint256"
        }
      ],
      "anonymous": false
    },
    {
      "type": "event",
      "name": "URI",
      "inputs": [
        {
          "name": "value",
          "type": "string",
          "indexed": false,
          "internalType": "string"
        },
        {
          "name": "id",
          "type": "uint256",
          "indexed": true,
          "internalType": "uint256"
        }
      ],
      "anonymous": false
    }
  ],
  "bytecode": {
    "object": "0x60806040523480156200001157600080fd5b5060405162001c8538038062001c858339810160408190526200003491620000cd565b80620000408162000053565b506200004c3362000065565b50620002fd565b600262000061828262000231565b5050565b600380546001600160a01b038381166001600160a01b0319831681179093556040519116919082907f8be0079c531659141344cd1fd0a4f28419497f9722a3daafe3b4186f6b6457e090600090a35050565b634e487b7160e01b600052604160045260246000fd5b60006020808385031215620000e157600080fd5b82516001600160401b0380821115620000f957600080fd5b818501915085601f8301126200010e57600080fd5b815181811115620001235762000123620000b7565b604051601f8201601f19908116603f011681019083821181831017156200014e576200014e620000b7565b8160405282815288868487010111156200016757600080fd5b600093505b828410156200018b57848401860151818501870152928501926200016c565b600086848301015280965050505050505092915050565b600181811c90821680620001b757607f821691505b602082108103620001d857634e487b7160e01b600052602260045260246000fd5b50919050565b601f8211156200022c57600081815260208120601f850160051c81016020861015620002075750805b601f850160051c820191505b81811015620002285782815560010162000213565b5050505b505050565b81516001600160401b038111156200024d576200024d620000b7565b62000265816200025e8454620001a2565b84620001de565b602080601f8311600181146200029d5760008415620002845750858301515b600019600386901b1c1916600185901b17855562000228565b600085815260208120601f198616915b82811015620002ce57888601518255948401946001909101908401620002ad565b5085821015620002ed5787850151600019600388901b60f8161c191681555b5050505050600190811b01905550565b611978806200030d6000396000f3fe6080604052600436106100e75760003560e01c806355f804b31161008a578063e985e9c511610059578063e985e9c514610271578063ed7aae2b146102ba578063f242432a146102e7578063f2fde38b1461030757600080fd5b806355f804b3146101f4578063715018a6146102145780638da5cb5b14610229578063a22cb4651461025157600080fd5b8063156e29f6116100c6578063156e29f61461017c57806318160ddd146101915780632eb2c2d6146101a75780634e1273f4146101c757600080fd5b8062fdd58e146100ec57806301ffc9a71461011f5780630e89341c1461014f575b600080fd5b3480156100f857600080fd5b5061010c610107366004610f8f565b610327565b6040519081526020015b60405180910390f35b34801561012b57600080fd5b5061013f61013a366004610fcf565b6103c0565b6040519015158152602001610116565b34801561015b57600080fd5b5061016f61016a366004610ff3565b610410565b6040516101169190611052565b61018f61018a366004611065565b6104a4565b005b34801561019d57600080fd5b5061010c60045481565b3480156101b357600080fd5b5061018f6101c23660046111ee565b6104f7565b3480156101d357600080fd5b506101e76101e2366004611298565b610543565b604051610116919061139e565b34801561020057600080fd5b5061018f61020f3660046113b1565b61066d565b34801561022057600080fd5b5061018f610681565b34801561023557600080fd5b506003546040516001600160a01b039091168152602001610116565b34801561025d57600080fd5b5061018f61026c366004611402565b610695565b34801561027d57600080fd5b5061013f61028c36600461143e565b6001600160a01b03918216600090815260016020908152604080832093909416825291909152205460ff1690565b3480156102c657600080fd5b5061010c6102d5366004610ff3565b60056020526000908152604090205481565b3480156102f357600080fd5b5061018f610302366004611471565b6106a4565b34801561031357600080fd5b5061018f6103223660046114d6565b6106e9565b60006001600160a01b0383166103975760405162461bcd60e51b815260206004820152602a60248201527f455243313135353a2061646472657373207a65726f206973206e6f742061207660448201526930b634b21037bbb732b960b11b60648201526084015b60405180910390fd5b506000818152602081815260408083206001600160a01b03861684529091529020545b92915050565b60006001600160e01b03198216636cdb3d1360e11b14806103f157506001600160e01b031982166303a24d0760e21b145b806103ba57506301ffc9a760e01b6001600160e01b03198316146103ba565b60606002805461041f906114f1565b80601f016020809104026020016040519081016040528092919081815260200182805461044b906114f1565b80156104985780601f1061046d57610100808354040283529160200191610498565b820191906000526020600020905b81548152906001019060200180831161047b57829003601f168201915b50505050509050919050565b6104ac61075f565b60008281526005602052604081205490036104d757600480549060006104d183611541565b91905055505b6104f2838383604051806020016040528060008152506107b9565b505050565b6001600160a01b0385163314806105135750610513853361028c565b61052f5760405162461bcd60e51b815260040161038e9061155a565b61053c85858585856108cd565b5050505050565b606081518351146105a85760405162461bcd60e51b815260206004820152602960248201527f455243313135353a206163636f756e747320616e6420696473206c656e677468604482015268040dad2e6dac2e8c6d60bb1b606482015260840161038e565b6000835167ffffffffffffffff8111156105c4576105c4611098565b6040519080825280602002602001820160405280156105ed578160200160208202803683370190505b50905060005b845181101561066557610638858281518110610611576106116115a8565b602002602001015185838151811061062b5761062b6115a8565b6020026020010151610327565b82828151811061064a5761064a6115a8565b602090810291909101015261065e81611541565b90506105f3565b509392505050565b61067561075f565b61067e81610aaa565b50565b61068961075f565b6106936000610ab6565b565b6106a0338383610b08565b5050565b6001600160a01b0385163314806106c057506106c0853361028c565b6106dc5760405162461bcd60e51b815260040161038e9061155a565b61053c8585858585610be8565b6106f161075f565b6001600160a01b0381166107565760405162461bcd60e51b815260206004820152602660248201527f4f776e61626c653a206e6577206f776e657220697320746865207a65726f206160448201526564647265737360d01b606482015260840161038e565b61067e81610ab6565b6003546001600160a01b031633146106935760405162461bcd60e51b815260206004820181905260248201527f4f776e61626c653a2063616c6c6572206973206e6f7420746865206f776e6572604482015260640161038e565b6001600160a01b0384166108195760405162461bcd60e51b815260206004820152602160248201527f455243313135353a206d696e7420746f20746865207a65726f206164647265736044820152607360f81b606482015260840161038e565b33600061082585610d12565b9050600061083285610d12565b90506000868152602081815260408083206001600160a01b038b168452909152812080548792906108649084906115be565b909155505060408051878152602081018790526001600160a01b03808a1692600092918716917fc3d58168c5ae7397731d063d5bbf3d657854427343f4c083240f7aacaa2d0f62910160405180910390a46108c483600089898989610d5d565b50505050505050565b815183511461092f5760405162461bcd60e51b815260206004820152602860248201527f455243313135353a2069647320616e6420616d6f756e7473206c656e677468206044820152670dad2e6dac2e8c6d60c31b606482015260840161038e565b6001600160a01b0384166109555760405162461bcd60e51b815260040161038e906115d1565b3360005b8451811015610a3c576000858281518110610976576109766115a8565b602002602001015190506000858381518110610994576109946115a8565b602090810291909101810151600084815280835260408082206001600160a01b038e1683529093529190912054909150818110156109e45760405162461bcd60e51b815260040161038e90611616565b6000838152602081815260408083206001600160a01b038e8116855292528083208585039055908b16825281208054849290610a219084906115be565b9250508190555050505080610a3590611541565b9050610959565b50846001600160a01b0316866001600160a01b0316826001600160a01b03167f4a39dc06d4c0dbc64b70af90fd698a233a518aa5d07e595d983b8c0526c8f7fb8787604051610a8c929190611660565b60405180910390a4610aa2818787878787610eb8565b505050505050565b60026106a082826116d4565b600380546001600160a01b038381166001600160a01b0319831681179093556040519116919082907f8be0079c531659141344cd1fd0a4f28419497f9722a3daafe3b4186f6b6457e090600090a35050565b816001600160a01b0316836001600160a01b031603610b7b5760405162461bcd60e51b815260206004820152602960248201527f455243313135353a2073657474696e6720617070726f76616c20737461747573604482015268103337b91039b2b63360b91b606482015260840161038e565b6001600160a01b03838116600081815260016020908152604080832094871680845294825291829020805460ff191686151590811790915591519182527f17307eab39ab6107e8899845ad3d59bd9653f200f220920489ca2b5937696c31910160405180910390a3505050565b6001600160a01b038416610c0e5760405162461bcd60e51b815260040161038e906115d1565b336000610c1a85610d12565b90506000610c2785610d12565b90506000868152602081815260408083206001600160a01b038c16845290915290205485811015610c6a5760405162461bcd60e51b815260040161038e90611616565b6000878152602081815260408083206001600160a01b038d8116855292528083208985039055908a16825281208054889290610ca79084906115be565b909155505060408051888152602081018890526001600160a01b03808b16928c821692918816917fc3d58168c5ae7397731d063d5bbf3d657854427343f4c083240f7aacaa2d0f62910160405180910390a4610d07848a8a8a8a8a610d5d565b505050505050505050565b60408051600180825281830190925260609160009190602080830190803683370190505090508281600081518110610d4c57610d4c6115a8565b602090810291909101015292915050565b6001600160a01b0384163b15610aa25760405163f23a6e6160e01b81526001600160a01b0385169063f23a6e6190610da19089908990889088908890600401611794565b6020604051808303816000875af1925050508015610ddc575060408051601f3d908101601f19168201909252610dd9918101906117d9565b60015b610e8857610de86117f6565b806308c379a003610e215750610dfc611812565b80610e075750610e23565b8060405162461bcd60e51b815260040161038e9190611052565b505b60405162461bcd60e51b815260206004820152603460248201527f455243313135353a207472616e7366657220746f206e6f6e2d455243313135356044820152732932b1b2b4bb32b91034b6b83632b6b2b73a32b960611b606482015260840161038e565b6001600160e01b0319811663f23a6e6160e01b146108c45760405162461bcd60e51b815260040161038e9061189c565b6001600160a01b0384163b15610aa25760405163bc197c8160e01b81526001600160a01b0385169063bc197c8190610efc90899089908890889088906004016118e4565b6020604051808303816000875af1925050508015610f37575060408051601f3d908101601f19168201909252610f34918101906117d9565b60015b610f4357610de86117f6565b6001600160e01b0319811663bc197c8160e01b146108c45760405162461bcd60e51b815260040161038e9061189c565b80356001600160a01b0381168114610f8a57600080fd5b919050565b60008060408385031215610fa257600080fd5b610fab83610f73565b946020939093013593505050565b6001600160e01b03198116811461067e57600080fd5b600060208284031215610fe157600080fd5b8135610fec81610fb9565b9392505050565b60006020828403121561100557600080fd5b5035919050565b6000815180845260005b8181101561103257602081850181015186830182015201611016565b506000602082860101526020601f19601f83011685010191505092915050565b602081526000610fec602083018461100c565b60008060006060848603121561107a57600080fd5b61108384610f73565b95602085013595506040909401359392505050565b634e487b7160e01b600052604160045260246000fd5b601f8201601f1916810167ffffffffffffffff811182821017156110d4576110d4611098565b6040525050565b600067ffffffffffffffff8211156110f5576110f5611098565b5060051b60200190565b600082601f83011261111057600080fd5b8135602061111d826110db565b60405161112a82826110ae565b83815260059390931b850182019282810191508684111561114a57600080fd5b8286015b84811015611165578035835291830191830161114e565b509695505050505050565b600067ffffffffffffffff83111561118a5761118a611098565b6040516111a1601f8501601f1916602001826110ae565b8091508381528484840111156111b657600080fd5b83836020830137600060208583010152509392505050565b600082601f8301126111df57600080fd5b610fec83833560208501611170565b600080600080600060a0868803121561120657600080fd5b61120f86610f73565b945061121d60208701610f73565b9350604086013567ffffffffffffffff8082111561123a57600080fd5b61124689838a016110ff565b9450606088013591508082111561125c57600080fd5b61126889838a016110ff565b9350608088013591508082111561127e57600080fd5b5061128b888289016111ce565b9150509295509295909350565b600080604083850312156112ab57600080fd5b823567ffffffffffffffff808211156112c357600080fd5b818501915085601f8301126112d757600080fd5b813560206112e4826110db565b6040516112f182826110ae565b83815260059390931b850182019282810191508984111561131157600080fd5b948201945b838610156113365761132786610f73565b82529482019490820190611316565b9650508601359250508082111561134c57600080fd5b50611359858286016110ff565b9150509250929050565b600081518084526020808501945080840160005b8381101561139357815187529582019590820190600101611377565b509495945050505050565b602081526000610fec6020830184611363565b6000602082840312156113c357600080fd5b813567ffffffffffffffff8111156113da57600080fd5b8201601f810184136113eb57600080fd5b6113fa84823560208401611170565b949350505050565b6000806040838503121561141557600080fd5b61141e83610f73565b91506020830135801515811461143357600080fd5b809150509250929050565b6000806040838503121561145157600080fd5b61145a83610f73565b915061146860208401610f73565b90509250929050565b600080600080600060a0868803121561148957600080fd5b61149286610f73565b94506114a060208701610f73565b93506040860135925060608601359150608086013567ffffffffffffffff8111156114ca57600080fd5b61128b888289016111ce565b6000602082840312156114e857600080fd5b610fec82610f73565b600181811c9082168061150557607f821691505b60208210810361152557634e487b7160e01b600052602260045260246000fd5b50919050565b634e487b7160e01b600052601160045260246000fd5b6000600182016115535761155361152b565b5060010190565b6020808252602e908201527f455243313135353a2063616c6c6572206973206e6f7420746f6b656e206f776e60408201526d195c881bdc88185c1c1c9bdd995960921b606082015260800190565b634e487b7160e01b600052603260045260246000fd5b808201808211156103ba576103ba61152b565b60208082526025908201527f455243313135353a207472616e7366657220746f20746865207a65726f206164604082015264647265737360d81b606082015260800190565b6020808252602a908201527f455243313135353a20696e73756666696369656e742062616c616e636520666f60408201526939103a3930b739b332b960b11b606082015260800190565b6040815260006116736040830185611363565b82810360208401526116858185611363565b95945050505050565b601f8211156104f257600081815260208120601f850160051c810160208610156116b55750805b601f850160051c820191505b81811015610aa2578281556001016116c1565b815167ffffffffffffffff8111156116ee576116ee611098565b611702816116fc84546114f1565b8461168e565b602080601f831160018114611737576000841561171f5750858301515b600019600386901b1c1916600185901b178555610aa2565b600085815260208120601f198616915b8281101561176657888601518255948401946001909101908401611747565b50858210156117845787850151600019600388901b60f8161c191681555b5050505050600190811b01905550565b6001600160a01b03868116825285166020820152604081018490526060810183905260a0608082018190526000906117ce9083018461100c565b979650505050505050565b6000602082840312156117eb57600080fd5b8151610fec81610fb9565b600060033d111561180f5760046000803e5060005160e01c5b90565b600060443d10156118205790565b6040516003193d81016004833e81513d67ffffffffffffffff816024840111818411171561185057505050505090565b82850191508151818111156118685750505050505090565b843d87010160208285010111156118825750505050505090565b611891602082860101876110ae565b509095945050505050565b60208082526028908201527f455243313135353a204552433131353552656365697665722072656a656374656040820152676420746f6b656e7360c01b606082015260800190565b6001600160a01b0386811682528516602082015260a06040820181905260009061191090830186611363565b82810360608401526119228186611363565b90508281036080840152611936818561100c565b9897505050505050505056fea2646970667358221220debfca6929c127267b84fddeb892d00792b76e22009b9e98a5d4a7ffe7e3331464736f6c63430008120033",
    "linkReferences": {}
  },
  "methodIdentifiers": {
    "balanceOf(address,uint256)": "00fdd58e",
    "balanceOfBatch(address[],uint256[])": "4e1273f4",
    "isApprovedForAll(address,address)": "e985e9c5",
    "mint(address,uint256,uint256)": "156e29f6",
    "owner()": "8da5cb5b",
    "renounceOwnership()": "715018a6",
    "safeBatchTransferFrom(address,address,uint256[],uint256[],bytes)": "2eb2c2d6",
    "safeTransferFrom(address,address,uint256,uint256,bytes)": "f242432a",
    "setApprovalForAll(address,bool)": "a22cb465",
    "setBaseURI(string)": "55f804b3",
    "supportsInterface(bytes4)": "01ffc9a7",
    "totalBalances(uint256)": "ed7aae2b",
    "totalSupply()": "18160ddd",
    "transferOwnership(address)": "f2fde38b",
    "uri(uint256)": "0e89341c"
  },
  "id": 74
}