{
  "abi": [
    {
      "type": "constructor",
      "inputs": [],
      "stateMutability": "nonpayable"
    },
    {
      "type": "function",
      "name": "DEFAULT_ADMIN_ROLE",
      "inputs": [],
      "outputs": [
        {
          "name": "",
          "type": "bytes32",
          "internalType": "bytes32"
        }
      ],
      "stateMutability": "view"
    },
    {
      "type": "function",
      "name": "claim",
      "inputs": [
        {
          "name": "client",
          "type": "string",
          "internalType": "string"
        },
        {
          "name": "collection",
          "type": "string",
          "internalType": "string"
        },
        {
          "name": "tokenId",
          "type": "uint256",
          "internalType": "uint256"
        },
        {
          "name": "amount",
          "type": "uint256",
          "internalType": "uint256"
        },
        {
          "name": "recipient",
          "type": "address",
          "internalType": "address"
        }
      ],
      "outputs": [],
      "stateMutability": "nonpayable"
    },
    {
      "type": "function",
      "name": "claim",
      "inputs": [
        {
          "name": "client",
          "type": "string",
          "internalType": "string"
        },
        {
          "name": "amount",
          "type": "uint256",
          "internalType": "uint256"
        },
        {
          "name": "recipient",
          "type": "address",
          "internalType": "address"
        }
      ],
      "outputs": [],
      "stateMutability": "nonpayable"
    },
    {
      "type": "function",
      "name": "claim",
      "inputs": [
        {
          "name": "client",
          "type": "string",
          "internalType": "string"
        },
        {
          "name": "collection",
          "type": "string",
          "internalType": "string"
        },
        {
          "name": "asset",
          "type": "uint256",
          "internalType": "uint256"
        },
        {
          "name": "recipient",
          "type": "address",
          "internalType": "address"
        }
      ],
      "outputs": [],
      "stateMutability": "nonpayable"
    },
    {
      "type": "function",
      "name": "claimRole",
      "inputs": [],
      "outputs": [
        {
          "name": "",
          "type": "bytes32",
          "internalType": "bytes32"
        }
      ],
      "stateMutability": "view"
    },
    {
      "type": "function",
      "name": "computeClientVaultAddress",
      "inputs": [
        {
          "name": "name",
          "type": "string",
          "internalType": "string"
        },
        {
          "name": "bytecode",
          "type": "bytes",
          "internalType": "bytes"
        }
      ],
      "outputs": [
        {
          "name": "",
          "type": "address",
          "internalType": "address"
        }
      ],
      "stateMutability": "view"
    },
    {
      "type": "function",
      "name": "deployClientVault",
      "inputs": [
        {
          "name": "name",
          "type": "string",
          "internalType": "string"
        },
        {
          "name": "bytecode",
          "type": "bytes",
          "internalType": "bytes"
        }
      ],
      "outputs": [
        {
          "name": "",
          "type": "address",
          "internalType": "address"
        }
      ],
      "stateMutability": "payable"
    },
    {
      "type": "function",
      "name": "getClientVaultAddress",
      "inputs": [
        {
          "name": "name",
          "type": "string",
          "internalType": "string"
        }
      ],
      "outputs": [
        {
          "name": "",
          "type": "address",
          "internalType": "address"
        }
      ],
      "stateMutability": "view"
    },
    {
      "type": "function",
      "name": "getCollectionAddress",
      "inputs": [
        {
          "name": "name",
          "type": "string",
          "internalType": "string"
        }
      ],
      "outputs": [
        {
          "name": "",
          "type": "address",
          "internalType": "address"
        }
      ],
      "stateMutability": "view"
    },
    {
      "type": "function",
      "name": "getRoleAdmin",
      "inputs": [
        {
          "name": "role",
          "type": "bytes32",
          "internalType": "bytes32"
        }
      ],
      "outputs": [
        {
          "name": "",
          "type": "bytes32",
          "internalType": "bytes32"
        }
      ],
      "stateMutability": "view"
    },
    {
      "type": "function",
      "name": "grantRole",
      "inputs": [
        {
          "name": "role",
          "type": "bytes32",
          "internalType": "bytes32"
        },
        {
          "name": "account",
          "type": "address",
          "internalType": "address"
        }
      ],
      "outputs": [],
      "stateMutability": "nonpayable"
    },
    {
      "type": "function",
      "name": "hasRole",
      "inputs": [
        {
          "name": "role",
          "type": "bytes32",
          "internalType": "bytes32"
        },
        {
          "name": "account",
          "type": "address",
          "internalType": "address"
        }
      ],
      "outputs": [
        {
          "name": "",
          "type": "bool",
          "internalType": "bool"
        }
      ],
      "stateMutability": "view"
    },
    {
      "type": "function",
      "name": "initialize",
      "inputs": [],
      "outputs": [],
      "stateMutability": "nonpayable"
    },
    {
      "type": "function",
      "name": "isSupported",
      "inputs": [
        {
          "name": "nft",
          "type": "address",
          "internalType": "address"
        }
      ],
      "outputs": [
        {
          "name": "",
          "type": "bool",
          "internalType": "bool"
        }
      ],
      "stateMutability": "view"
    },
    {
      "type": "function",
      "name": "manageCollection",
      "inputs": [
        {
          "name": "name",
          "type": "string",
          "internalType": "string"
        },
        {
          "name": "token",
          "type": "uint8",
          "internalType": "enum UMintStorageSlot.Token"
        },
        {
          "name": "asset",
          "type": "address",
          "internalType": "address"
        },
        {
          "name": "supported",
          "type": "bool",
          "internalType": "bool"
        }
      ],
      "outputs": [],
      "stateMutability": "nonpayable"
    },
    {
      "type": "function",
      "name": "renounceRole",
      "inputs": [
        {
          "name": "role",
          "type": "bytes32",
          "internalType": "bytes32"
        },
        {
          "name": "account",
          "type": "address",
          "internalType": "address"
        }
      ],
      "outputs": [],
      "stateMutability": "nonpayable"
    },
    {
      "type": "function",
      "name": "revokeRole",
      "inputs": [
        {
          "name": "role",
          "type": "bytes32",
          "internalType": "bytes32"
        },
        {
          "name": "account",
          "type": "address",
          "internalType": "address"
        }
      ],
      "outputs": [],
      "stateMutability": "nonpayable"
    },
    {
      "type": "function",
      "name": "supportsInterface",
      "inputs": [
        {
          "name": "interfaceId",
          "type": "bytes4",
          "internalType": "bytes4"
        }
      ],
      "outputs": [
        {
          "name": "",
          "type": "bool",
          "internalType": "bool"
        }
      ],
      "stateMutability": "view"
    },
    {
      "type": "function",
      "name": "totalClientVaults",
      "inputs": [],
      "outputs": [
        {
          "name": "",
          "type": "uint256",
          "internalType": "uint256"
        }
      ],
      "stateMutability": "view"
    },
    {
      "type": "function",
      "name": "totalCollection",
      "inputs": [],
      "outputs": [
        {
          "name": "",
          "type": "uint256",
          "internalType": "uint256"
        }
      ],
      "stateMutability": "view"
    },
    {
      "type": "function",
      "name": "version",
      "inputs": [],
      "outputs": [
        {
          "name": "",
          "type": "uint8",
          "internalType": "uint8"
        }
      ],
      "stateMutability": "view"
    },
    {
      "type": "event",
      "name": "Claim",
      "inputs": [
        {
          "name": "vault",
          "type": "address",
          "indexed": true,
          "internalType": "address"
        },
        {
          "name": "amount",
          "type": "uint256",
          "indexed": false,
          "internalType": "uint256"
        },
        {
          "name": "recipient",
          "type": "address",
          "indexed": true,
          "internalType": "address"
        }
      ],
      "anonymous": false
    },
    {
      "type": "event",
      "name": "ClaimERC1155",
      "inputs": [
        {
          "name": "vault",
          "type": "address",
          "indexed": true,
          "internalType": "address"
        },
        {
          "name": "collection",
          "type": "address",
          "indexed": true,
          "internalType": "address"
        },
        {
          "name": "tokenId",
          "type": "uint256",
          "indexed": false,
          "internalType": "uint256"
        },
        {
          "name": "amount",
          "type": "uint256",
          "indexed": false,
          "internalType": "uint256"
        },
        {
          "name": "recipient",
          "type": "address",
          "indexed": true,
          "internalType": "address"
        }
      ],
      "anonymous": false
    },
    {
      "type": "event",
      "name": "ClaimERC20",
      "inputs": [
        {
          "name": "vault",
          "type": "address",
          "indexed": true,
          "internalType": "address"
        },
        {
          "name": "collection",
          "type": "address",
          "indexed": true,
          "internalType": "address"
        },
        {
          "name": "amount",
          "type": "uint256",
          "indexed": false,
          "internalType": "uint256"
        },
        {
          "name": "recipient",
          "type": "address",
          "indexed": true,
          "internalType": "address"
        }
      ],
      "anonymous": false
    },
    {
      "type": "event",
      "name": "ClaimERC721",
      "inputs": [
        {
          "name": "vault",
          "type": "address",
          "indexed": true,
          "internalType": "address"
        },
        {
          "name": "collection",
          "type": "address",
          "indexed": true,
          "internalType": "address"
        },
        {
          "name": "tokenId",
          "type": "uint256",
          "indexed": false,
          "internalType": "uint256"
        },
        {
          "name": "recipient",
          "type": "address",
          "indexed": true,
          "internalType": "address"
        }
      ],
      "anonymous": false
    },
    {
      "type": "event",
      "name": "ClientVaultDeployment",
      "inputs": [
        {
          "name": "name",
          "type": "string",
          "indexed": true,
          "internalType": "string"
        },
        {
          "name": "addr",
          "type": "address",
          "indexed": true,
          "internalType": "address"
        }
      ],
      "anonymous": false
    },
    {
      "type": "event",
      "name": "CollectionAdded",
      "inputs": [
        {
          "name": "name",
          "type": "string",
          "indexed": true,
          "internalType": "string"
        },
        {
          "name": "token",
          "type": "uint8",
          "indexed": true,
          "internalType": "enum UMintStorageSlot.Token"
        },
        {
          "name": "addr",
          "type": "address",
          "indexed": true,
          "internalType": "address"
        }
      ],
      "anonymous": false
    },
    {
      "type": "event",
      "name": "CollectionAmended",
      "inputs": [
        {
          "name": "name",
          "type": "string",
          "indexed": true,
          "internalType": "string"
        },
        {
          "name": "token",
          "type": "uint8",
          "indexed": true,
          "internalType": "enum UMintStorageSlot.Token"
        },
        {
          "name": "addr",
          "type": "address",
          "indexed": true,
          "internalType": "address"
        }
      ],
      "anonymous": false
    },
    {
      "type": "event",
      "name": "CollectionRemoved",
      "inputs": [
        {
          "name": "name",
          "type": "string",
          "indexed": true,
          "internalType": "string"
        },
        {
          "name": "token",
          "type": "uint8",
          "indexed": true,
          "internalType": "enum UMintStorageSlot.Token"
        },
        {
          "name": "addr",
          "type": "address",
          "indexed": true,
          "internalType": "address"
        }
      ],
      "anonymous": false
    },
    {
      "type": "event",
      "name": "Initialized",
      "inputs": [
        {
          "name": "version",
          "type": "uint8",
          "indexed": false,
          "internalType": "uint8"
        }
      ],
      "anonymous": false
    },
    {
      "type": "event",
      "name": "RoleAdminChanged",
      "inputs": [
        {
          "name": "role",
          "type": "bytes32",
          "indexed": true,
          "internalType": "bytes32"
        },
        {
          "name": "previousAdminRole",
          "type": "bytes32",
          "indexed": true,
          "internalType": "bytes32"
        },
        {
          "name": "newAdminRole",
          "type": "bytes32",
          "indexed": true,
          "internalType": "bytes32"
        }
      ],
      "anonymous": false
    },
    {
      "type": "event",
      "name": "RoleGranted",
      "inputs": [
        {
          "name": "role",
          "type": "bytes32",
          "indexed": true,
          "internalType": "bytes32"
        },
        {
          "name": "account",
          "type": "address",
          "indexed": true,
          "internalType": "address"
        },
        {
          "name": "sender",
          "type": "address",
          "indexed": true,
          "internalType": "address"
        }
      ],
      "anonymous": false
    },
    {
      "type": "event",
      "name": "RoleRevoked",
      "inputs": [
        {
          "name": "role",
          "type": "bytes32",
          "indexed": true,
          "internalType": "bytes32"
        },
        {
          "name": "account",
          "type": "address",
          "indexed": true,
          "internalType": "address"
        },
        {
          "name": "sender",
          "type": "address",
          "indexed": true,
          "internalType": "address"
        }
      ],
      "anonymous": false
    },
    {
      "type": "error",
      "name": "DuplicateClientVault",
      "inputs": []
    },
    {
      "type": "error",
      "name": "IncorrectParametersProvided",
      "inputs": []
    },
    {
      "type": "error",
      "name": "InvalidClient",
      "inputs": []
    },
    {
      "type": "error",
      "name": "UnsupportedCollection",
      "inputs": []
    },
    {
      "type": "error",
      "name": "ZeroAddressDetected",
      "inputs": []
    }
  ],
  "bytecode": {
    "object": "0x608060405234801561001057600080fd5b5061001961001e565b6100dd565b600054610100900460ff161561008a5760405162461bcd60e51b815260206004820152602760248201527f496e697469616c697a61626c653a20636f6e747261637420697320696e697469604482015266616c697a696e6760c81b606482015260840160405180910390fd5b60005460ff908116146100db576000805460ff191660ff9081179091556040519081527f7f26b83ff96e1f2b6a682f133852f6798a09c465da95921460cefb38474024989060200160405180910390a15b565b611e62806100ec6000396000f3fe60806040526004361061012a5760003560e01c806354fd4d50116100ab578063a217fddf1161006f578063a217fddf14610361578063b6893ea214610376578063c467dda614610396578063d547741f146103ab578063dbc472c4146103cb578063f2d1597c146103eb57600080fd5b806354fd4d50146102ca578063622bfe84146102ec5780638129fc1c1461030c57806391d1485414610321578063a11ad0401461034157600080fd5b806336568abe116100f257806336568abe1461020f57806342b422401461022f5780634f129c531461024457806350d7a6fd1461028a57806354708bc4146102aa57600080fd5b806301ffc9a71461012f5780632240f8aa14610164578063248a9ca31461018f57806328f1a47e146101cd5780632f2ff15d146101ef575b600080fd5b34801561013b57600080fd5b5061014f61014a366004611823565b610400565b60405190151581526020015b60405180910390f35b6101776101723660046118f9565b610437565b6040516001600160a01b03909116815260200161015b565b34801561019b57600080fd5b506101bf6101aa366004611971565b60009081526065602052604090206001015490565b60405190815260200161015b565b3480156101d957600080fd5b506101ed6101e83660046119a6565b6105b7565b005b3480156101fb57600080fd5b506101ed61020a366004611a2e565b6107d7565b34801561021b57600080fd5b506101ed61022a366004611a2e565b610801565b34801561023b57600080fd5b506101bf610884565b34801561025057600080fd5b5061014f61025f366004611a5a565b6001600160a01b03166000908152600080516020611ded833981519152602052604090205460ff1690565b34801561029657600080fd5b506101ed6102a5366004611a75565b6108ae565b3480156102b657600080fd5b506101776102c5366004611acc565b6109d1565b3480156102d657600080fd5b5060005460405160ff909116815260200161015b565b3480156102f857600080fd5b506101ed610307366004611b3e565b610a13565b34801561031857600080fd5b506101ed610b31565b34801561032d57600080fd5b5061014f61033c366004611a2e565b610c08565b34801561034d57600080fd5b5061017761035c366004611acc565b610c33565b34801561036d57600080fd5b506101bf600081565b34801561038257600080fd5b506101776103913660046118f9565b610c7b565b3480156103a257600080fd5b506101bf610d18565b3480156103b757600080fd5b506101ed6103c6366004611a2e565b610d40565b3480156103d757600080fd5b506101ed6103e6366004611bba565b610d65565b3480156103f757600080fd5b506101bf61105f565b60006001600160e01b03198216637965db0b60e01b148061043157506301ffc9a760e01b6001600160e01b03198316145b92915050565b60008061044381611087565b6000600080516020611dcd833981519152604051610462908790611c5c565b908152604051908190036020019020546001600160a01b0316146104995760405163356f230760e11b815260040160405180910390fd5b6000846040516020016104ac9190611c5c565b6040516020818303038152906040528051906020012060001c905060008185516020870134f59050803b6104df57600080fd5b80600080516020611dcd8339815191526040516104fd908990611c5c565b90815260405190819003602001902080546001600160a01b03929092166001600160a01b03199092169190911790556105537f128189f296ef4f48a0ec8cb04b32c9ac4a0714d50ad3e23394e6294891ce693690565b805490600061056183611c8e565b9190505550806001600160a01b03168660405161057e9190611c5c565b604051908190038120907fc7ffcc6ece4b4b965c172e4b412680651704abd4be9b13e1bd9efa308c77574d90600090a395945050505050565b6105bf61105f565b6105c881611087565b6000600080516020611e0d8339815191526040516105e7908890611c5c565b908152604080519182900360200182208282019091528054829060ff16600281111561061557610615611ca7565b600281111561062657610626611ca7565b815290546001600160a01b036101009091048116602092830152908201519192501661066557604051630179a91760e01b815260040160405180910390fd5b60028151600281111561067a5761067a611ca7565b14610698576040516371b9042160e01b815260040160405180910390fd5b6000600080516020611dcd8339815191526040516106b7908a90611c5c565b908152604051908190036020019020546001600160a01b03169050806106f057604051631b528a2560e31b815260040160405180910390fd5b6020820151604051633d7fe79160e01b81526001600160a01b039182166004820152602481018890526044810187905285821660648201528291821690633d7fe79190608401600060405180830381600087803b15801561075057600080fd5b505af1158015610764573d6000803e3d6000fd5b50505050846001600160a01b031683602001516001600160a01b0316836001600160a01b03167fa572974ed39a66b0c59d71e3271565d0cb0344e15ea00be97c199084822082478a8a6040516107c4929190918252602082015260400190565b60405180910390a4505050505050505050565b6000828152606560205260409020600101546107f281611087565b6107fc8383611094565b505050565b6001600160a01b03811633146108765760405162461bcd60e51b815260206004820152602f60248201527f416363657373436f6e74726f6c3a2063616e206f6e6c792072656e6f756e636560448201526e103937b632b9903337b91039b2b63360891b60648201526084015b60405180910390fd5b610880828261111a565b5050565b60007f9b9d9b2d5e3d3f628946658685575dea0ea2e783508206834623a2b8247a44f05b54919050565b6108b661105f565b6108bf81611087565b6000600080516020611dcd8339815191526040516108de908790611c5c565b908152604051908190036020019020546001600160a01b031690508061091757604051631b528a2560e31b815260040160405180910390fd5b60405163b7760c8f60e01b8152600481018590526001600160a01b03848116602483015282919082169063b7760c8f90604401600060405180830381600087803b15801561096457600080fd5b505af1158015610978573d6000803e3d6000fd5b50505050836001600160a01b0316826001600160a01b03167fa8363d922dc171313585ca13972873c5732013dc819db64b51ba8b1aa1a1e3e2876040516109c191815260200190565b60405180910390a3505050505050565b6000600080516020611dcd8339815191526040516109f29085908590611cbd565b908152604051908190036020019020546001600160a01b0316905092915050565b6000610a1e81611087565b6001600160a01b038316610a4557604051632887dd7560e11b815260040160405180910390fd5b6000600080516020611e0d833981519152604051610a64908890611c5c565b908152604080519182900360200182208282019091528054829060ff166002811115610a9257610a92611ca7565b6002811115610aa357610aa3611ca7565b8152905461010090046001600160a01b03166020909101529050600080516020611ded8339815191526001600160a01b0385166000908152602091909152604090205460ff16610b1c5760208101516001600160a01b0316610b0f57610b0a868686611181565b610b29565b610b0a86868686856112f9565b610b2986868686856112f9565b505050505050565b600054600290610100900460ff16158015610b53575060005460ff8083169116105b610bb65760405162461bcd60e51b815260206004820152602e60248201527f496e697469616c697a61626c653a20636f6e747261637420697320616c72656160448201526d191e481a5b9a5d1a585b1a5e995960921b606482015260840161086d565b6000805461ffff191660ff83169081176101001761ff0019169091556040519081527f7f26b83ff96e1f2b6a682f133852f6798a09c465da95921460cefb38474024989060200160405180910390a150565b60009182526065602090815260408084206001600160a01b0393909316845291905290205460ff1690565b6000600080516020611e0d833981519152604051610c549085908590611cbd565b908152604051908190036020019020546001600160a01b0361010090910416905092915050565b60008060ff60f81b3085604051602001610c959190611c5c565b60408051601f19818403018152908290528051602091820120875188830120610cf895949391929091016001600160f81b031994909416845260609290921b6bffffffffffffffffffffffff191660018401526015830152603582015260550190565b60408051808303601f190181529190528051602090910120949350505050565b60007f128189f296ef4f48a0ec8cb04b32c9ac4a0714d50ad3e23394e6294891ce69366108a8565b600082815260656020526040902060010154610d5b81611087565b6107fc838361111a565b610d6d61105f565b610d7681611087565b6000600080516020611e0d833981519152604051610d95908790611c5c565b908152604080519182900360200182208282019091528054829060ff166002811115610dc357610dc3611ca7565b6002811115610dd457610dd4611ca7565b815290546001600160a01b0361010090910481166020928301529082015191925016610e1357604051630179a91760e01b815260040160405180910390fd5b600281516002811115610e2857610e28611ca7565b03610e46576040516371b9042160e01b815260040160405180910390fd5b6000600080516020611dcd833981519152604051610e65908990611c5c565b908152604051908190036020019020546001600160a01b0316905080610e9e57604051631b528a2560e31b815260040160405180910390fd5b80600083516002811115610eb457610eb4611ca7565b03610f895760208301516040516397e10a7960e01b81526001600160a01b039182166004820152602481018890528682166044820152908216906397e10a7990606401600060405180830381600087803b158015610f1157600080fd5b505af1158015610f25573d6000803e3d6000fd5b50505050846001600160a01b031683602001516001600160a01b0316836001600160a01b03167fc0c0b2c4914a4829fc8f04fd89e4c4fb30428719e1ddec316634a0c89fc7cf2489604051610f7c91815260200190565b60405180910390a4611055565b60208301516040516332756f7960e21b81526001600160a01b0391821660048201526024810188905286821660448201529082169063c9d5bde490606401600060405180830381600087803b158015610fe157600080fd5b505af1158015610ff5573d6000803e3d6000fd5b50505050846001600160a01b031683602001516001600160a01b0316836001600160a01b03167fc0c0b2c4914a4829fc8f04fd89e4c4fb30428719e1ddec316634a0c89fc7cf248960405161104c91815260200190565b60405180910390a45b5050505050505050565b60007f912c7b37cd4cbc410efff7b0dd160abb3e922341e761b33c41d5f70b47d866626108a8565b6110918133611615565b50565b61109e8282610c08565b6108805760008281526065602090815260408083206001600160a01b03851684529091529020805460ff191660011790556110d63390565b6001600160a01b0316816001600160a01b0316837f2f8788117e7eff1d82e926ec794901d17c78024a50270940304540a733656f0d60405160405180910390a45050565b6111248282610c08565b156108805760008281526065602090815260408083206001600160a01b0385168085529252808320805460ff1916905551339285917ff6391f5c32d9c69d2a47ea670b442974b53935d1edc7fd64eb21e047a839171b9190a45050565b604051806040016040528083600281111561119e5761119e611ca7565b81526001600160a01b038316602090910152600080516020611e0d8339815191526040516111cd908690611c5c565b90815260405190819003602001902081518154829060ff191660018360028111156111fa576111fa611ca7565b02179055506020919091015181546001600160a01b0390911661010002610100600160a81b0319909116179055600161123e600080516020611ded83398151915290565b6001600160a01b038316600090815260209190915260409020805460ff19169115159190911790557f9b9d9b2d5e3d3f628946658685575dea0ea2e783508206834623a2b8247a44f0805490600061129583611c8e565b9190505550806001600160a01b03168260028111156112b6576112b6611ca7565b846040516112c49190611c5c565b604051908190038120907f955b6026fb305b85b6c7e2402c992566de7ae64373f6a731ce94e12a9675b48690600090a4505050565b816113ff57600080516020611e0d83398151915260405161131b908790611c5c565b90815260405190819003602001902080546001600160a81b031916905561134d600080516020611ded83398151915290565b6001600160a01b038416600090815260209190915260408120805460ff191690557f9b9d9b2d5e3d3f628946658685575dea0ea2e783508206834623a2b8247a44f080549161139b83611ccd565b9190505550826001600160a01b03168460028111156113bc576113bc611ca7565b866040516113ca9190611c5c565b604051908190038120907fee5cb45c4e980ee674346d3fb7323c432cb859968c0a1686832daeb7abdc152290600090a461160e565b60208101516001600160a01b03166114bc57604051806040016040528085600281111561142e5761142e611ca7565b81526001600160a01b038516602090910152600080516020611e0d83398151915260405161145d908890611c5c565b90815260405190819003602001902081518154829060ff1916600183600281111561148a5761148a611ca7565b02179055506020919091015181546001600160a01b0390911661010002610100600160a81b03199091161790556115b3565b826001600160a01b031681602001516001600160a01b031614611511576001600160a01b03831660208281018290526000918252600080516020611ded833981519152905260409020805460ff191660011790555b8084600281111561152457611524611ca7565b9081600281111561153757611537611ca7565b90525080600080516020611e0d833981519152604051611558908890611c5c565b90815260405190819003602001902081518154829060ff1916600183600281111561158557611585611ca7565b02179055506020919091015181546001600160a01b0390911661010002610100600160a81b03199091161790555b826001600160a01b03168460028111156115cf576115cf611ca7565b866040516115dd9190611c5c565b604051908190038120907fbcce022a3ddb5aa3f7ad51a588d2a78bb91465dc2753ad35da983be3d7c79ee990600090a45b5050505050565b61161f8282610c08565b6108805761162c8161166e565b611637836020611680565b604051602001611648929190611ce4565b60408051601f198184030181529082905262461bcd60e51b825261086d91600401611d59565b60606104316001600160a01b03831660145b6060600061168f836002611d8c565b61169a906002611da3565b67ffffffffffffffff8111156116b2576116b261184d565b6040519080825280601f01601f1916602001820160405280156116dc576020820181803683370190505b509050600360fc1b816000815181106116f7576116f7611db6565b60200101906001600160f81b031916908160001a905350600f60fb1b8160018151811061172657611726611db6565b60200101906001600160f81b031916908160001a905350600061174a846002611d8c565b611755906001611da3565b90505b60018111156117cd576f181899199a1a9b1b9c1cb0b131b232b360811b85600f166010811061178957611789611db6565b1a60f81b82828151811061179f5761179f611db6565b60200101906001600160f81b031916908160001a90535060049490941c936117c681611ccd565b9050611758565b50831561181c5760405162461bcd60e51b815260206004820181905260248201527f537472696e67733a20686578206c656e67746820696e73756666696369656e74604482015260640161086d565b9392505050565b60006020828403121561183557600080fd5b81356001600160e01b03198116811461181c57600080fd5b634e487b7160e01b600052604160045260246000fd5b600067ffffffffffffffff8084111561187e5761187e61184d565b604051601f8501601f19908116603f011681019082821181831017156118a6576118a661184d565b816040528093508581528686860111156118bf57600080fd5b858560208301376000602087830101525050509392505050565b600082601f8301126118ea57600080fd5b61181c83833560208501611863565b6000806040838503121561190c57600080fd5b823567ffffffffffffffff8082111561192457600080fd5b611930868387016118d9565b9350602085013591508082111561194657600080fd5b508301601f8101851361195857600080fd5b61196785823560208401611863565b9150509250929050565b60006020828403121561198357600080fd5b5035919050565b80356001600160a01b03811681146119a157600080fd5b919050565b600080600080600060a086880312156119be57600080fd5b853567ffffffffffffffff808211156119d657600080fd5b6119e289838a016118d9565b965060208801359150808211156119f857600080fd5b50611a05888289016118d9565b9450506040860135925060608601359150611a226080870161198a565b90509295509295909350565b60008060408385031215611a4157600080fd5b82359150611a516020840161198a565b90509250929050565b600060208284031215611a6c57600080fd5b61181c8261198a565b600080600060608486031215611a8a57600080fd5b833567ffffffffffffffff811115611aa157600080fd5b611aad868287016118d9565b93505060208401359150611ac36040850161198a565b90509250925092565b60008060208385031215611adf57600080fd5b823567ffffffffffffffff80821115611af757600080fd5b818501915085601f830112611b0b57600080fd5b813581811115611b1a57600080fd5b866020828501011115611b2c57600080fd5b60209290920196919550909350505050565b60008060008060808587031215611b5457600080fd5b843567ffffffffffffffff811115611b6b57600080fd5b611b77878288016118d9565b945050602085013560038110611b8c57600080fd5b9250611b9a6040860161198a565b915060608501358015158114611baf57600080fd5b939692955090935050565b60008060008060808587031215611bd057600080fd5b843567ffffffffffffffff80821115611be857600080fd5b611bf4888389016118d9565b95506020870135915080821115611c0a57600080fd5b50611c17878288016118d9565b93505060408501359150611c2d6060860161198a565b905092959194509250565b60005b83811015611c53578181015183820152602001611c3b565b50506000910152565b60008251611c6e818460208701611c38565b9190910192915050565b634e487b7160e01b600052601160045260246000fd5b600060018201611ca057611ca0611c78565b5060010190565b634e487b7160e01b600052602160045260246000fd5b8183823760009101908152919050565b600081611cdc57611cdc611c78565b506000190190565b7f416363657373436f6e74726f6c3a206163636f756e7420000000000000000000815260008351611d1c816017850160208801611c38565b7001034b99036b4b9b9b4b733903937b6329607d1b6017918401918201528351611d4d816028840160208801611c38565b01602801949350505050565b6020815260008251806020840152611d78816040850160208701611c38565b601f01601f19169190910160400192915050565b808202811582820484141761043157610431611c78565b8082018082111561043157610431611c78565b634e487b7160e01b600052603260045260246000fdfe913809dc77207024d42c149a6fc49677f1a7996ddfb76a2ad70c002de11d2165747e8886b87b62f0eade79fdec6b3c3337a6c6564d7c5bb207756ea0c05622b92afd7ced8a1785401fa9d7faea1524b7f175fbee961e055e66c9b7ff9eecad88a2646970667358221220019998da143535798c2136b532c00a6a5a0580d6c769d821b959ef7a3596886764736f6c63430008120033",
    "linkReferences": {}
  },
  "methodIdentifiers": {
    "DEFAULT_ADMIN_ROLE()": "a217fddf",
    "claim(string,string,uint256,address)": "dbc472c4",
    "claim(string,string,uint256,uint256,address)": "28f1a47e",
    "claim(string,uint256,address)": "50d7a6fd",
    "claimRole()": "f2d1597c",
    "computeClientVaultAddress(string,bytes)": "b6893ea2",
    "deployClientVault(string,bytes)": "2240f8aa",
    "getClientVaultAddress(string)": "54708bc4",
    "getCollectionAddress(string)": "a11ad040",
    "getRoleAdmin(bytes32)": "248a9ca3",
    "grantRole(bytes32,address)": "2f2ff15d",
    "hasRole(bytes32,address)": "91d14854",
    "initialize()": "8129fc1c",
    "isSupported(address)": "4f129c53",
    "manageCollection(string,uint8,address,bool)": "622bfe84",
    "renounceRole(bytes32,address)": "36568abe",
    "revokeRole(bytes32,address)": "d547741f",
    "supportsInterface(bytes4)": "01ffc9a7",
    "totalClientVaults()": "c467dda6",
    "totalCollection()": "42b42240",
    "version()": "54fd4d50"
  },
  "id": 79
}